{
  "_format": "hh-sol-artifact-1",
  "contractName": "EtherSender",
  "sourceName": "contracts/migrate.sol",
  "abi": [
    {
      "inputs": [],
      "stateMutability": "nonpayable",
      "type": "constructor"
    },
    {
      "inputs": [],
      "name": "getBalance",
      "outputs": [
        {
          "internalType": "uint256",
          "name": "",
          "type": "uint256"
        }
      ],
      "stateMutability": "view",
      "type": "function"
    },
    {
      "inputs": [
        {
          "internalType": "address payable",
          "name": "_recipient",
          "type": "address"
        },
        {
          "internalType": "uint256",
          "name": "_amount",
          "type": "uint256"
        }
      ],
      "name": "sendEther",
      "outputs": [],
      "stateMutability": "nonpayable",
      "type": "function"
    },
    {
      "stateMutability": "payable",
      "type": "receive"
    }
  ],
  "bytecode": "0x608060405234801561001057600080fd5b50336000806101000a81548173ffffffffffffffffffffffffffffffffffffffff021916908373ffffffffffffffffffffffffffffffffffffffff1602179055506103ca806100606000396000f3fe60806040526004361061002d5760003560e01c806312065fe014610039578063c1756a2c1461006457610034565b3661003457005b600080fd5b34801561004557600080fd5b5061004e61008d565b60405161005b91906102ac565b60405180910390f35b34801561007057600080fd5b5061008b600480360381019061008691906101db565b610095565b005b600047905090565b60008054906101000a900473ffffffffffffffffffffffffffffffffffffffff1673ffffffffffffffffffffffffffffffffffffffff163373ffffffffffffffffffffffffffffffffffffffff1614610123576040517f08c379a000000000000000000000000000000000000000000000000000000000815260040161011a9061028c565b60405180910390fd5b80471015610166576040517f08c379a000000000000000000000000000000000000000000000000000000000815260040161015d9061026c565b60405180910390fd5b8173ffffffffffffffffffffffffffffffffffffffff166108fc829081150290604051600060405180830381858888f193505050501580156101ac573d6000803e3d6000fd5b505050565b6000813590506101c081610366565b92915050565b6000813590506101d58161037d565b92915050565b600080604083850312156101ee57600080fd5b60006101fc858286016101b1565b925050602061020d858286016101c6565b9150509250929050565b60006102246014836102c7565b915061022f82610314565b602082019050919050565b60006102476019836102c7565b91506102528261033d565b602082019050919050565b6102668161030a565b82525050565b6000602082019050818103600083015261028581610217565b9050919050565b600060208201905081810360008301526102a58161023a565b9050919050565b60006020820190506102c1600083018461025d565b92915050565b600082825260208201905092915050565b60006102e3826102ea565b9050919050565b600073ffffffffffffffffffffffffffffffffffffffff82169050919050565b6000819050919050565b7f496e73756666696369656e742062616c616e6365000000000000000000000000600082015250565b7f4f6e6c79206f776e65722063616e2073656e6420457468657200000000000000600082015250565b61036f816102d8565b811461037a57600080fd5b50565b6103868161030a565b811461039157600080fd5b5056fea2646970667358221220306f5e6b5af6f106bfd0cb2cd5e3562b2421b74f490c5d817959fa88ecc3fc6264736f6c63430008040033",
  "linkReferences": {},
  "deployedLinkReferences": {}
}