{
  "_format": "hh-sol-artifact-1",
  "contractName": "EtherSender",
  "sourceName": "contracts/migrate.sol",
  "abi": [
    {
      "inputs": [],
      "stateMutability": "nonpayable",
      "type": "constructor"
    },
    {
      "stateMutability": "payable",
      "type": "fallback"
    },
    {
      "inputs": [],
      "name": "owner",
      "outputs": [
        {
          "internalType": "address",
          "name": "",
          "type": "address"
        }
      ],
      "stateMutability": "view",
      "type": "function"
    },
    {
      "inputs": [
        {
          "internalType": "address payable",
          "name": "_receiver",
          "type": "address"
        }
      ],
      "name": "sendEther",
      "outputs": [],
      "stateMutability": "payable",
      "type": "function"
    },
    {
      "stateMutability": "payable",
      "type": "receive"
    }
  ],
  "bytecode": "0x608060405234801561001057600080fd5b50336000806101000a81548173ffffffffffffffffffffffffffffffffffffffff021916908373ffffffffffffffffffffffffffffffffffffffff1602179055506104c8806100606000396000f3fe60806040526004361061002d5760003560e01c806348c981e2146100365780638da5cb5b1461005257610034565b3661003457005b005b610050600480360381019061004b91906102ae565b61007d565b005b34801561005e57600080fd5b50610067610227565b60405161007491906102fc565b60405180910390f35b60008054906101000a900473ffffffffffffffffffffffffffffffffffffffff1673ffffffffffffffffffffffffffffffffffffffff163373ffffffffffffffffffffffffffffffffffffffff161461010b576040517f08c379a00000000000000000000000000000000000000000000000000000000081526004016101029061039a565b60405180910390fd5b60008054906101000a900473ffffffffffffffffffffffffffffffffffffffff1673ffffffffffffffffffffffffffffffffffffffff163373ffffffffffffffffffffffffffffffffffffffff1614610199576040517f08c379a000000000000000000000000000000000000000000000000000000000815260040161019090610406565b60405180910390fd5b60004710156101dd576040517f08c379a00000000000000000000000000000000000000000000000000000000081526004016101d490610472565b60405180910390fd5b8073ffffffffffffffffffffffffffffffffffffffff166108fc349081150290604051600060405180830381858888f19350505050158015610223573d6000803e3d6000fd5b5050565b60008054906101000a900473ffffffffffffffffffffffffffffffffffffffff1681565b600080fd5b600073ffffffffffffffffffffffffffffffffffffffff82169050919050565b600061027b82610250565b9050919050565b61028b81610270565b811461029657600080fd5b50565b6000813590506102a881610282565b92915050565b6000602082840312156102c4576102c361024b565b5b60006102d284828501610299565b91505092915050565b60006102e682610250565b9050919050565b6102f6816102db565b82525050565b600060208201905061031160008301846102ed565b92915050565b600082825260208201905092915050565b7f4f6e6c7920636f6e7472616374206f776e65722063616e20616363657373207460008201527f6869732066756e6374696f6e0000000000000000000000000000000000000000602082015250565b6000610384602c83610317565b915061038f82610328565b604082019050919050565b600060208201905081810360008301526103b381610377565b9050919050565b7f4f6e6c79206f776e65722063616e2073656e6420457468657200000000000000600082015250565b60006103f0601983610317565b91506103fb826103ba565b602082019050919050565b6000602082019050818103600083015261041f816103e3565b9050919050565b7f496e73756666696369656e742062616c616e6365000000000000000000000000600082015250565b600061045c601483610317565b915061046782610426565b602082019050919050565b6000602082019050818103600083015261048b8161044f565b905091905056fea26469706673582212201ef518bdeb8f3967bdeb411f81c73f2bed1cd618b398efc743bb0d46a388042d64736f6c63430008180033",
  "linkReferences": {},
  "deployedLinkReferences": {}
}