{
  "_format": "hh-sol-artifact-1",
  "contractName": "NFTMarketplace",
  "sourceName": "contracts/NFTMarketplace.sol",
  "abi": [
    {
      "inputs": [],
      "stateMutability": "nonpayable",
      "type": "constructor"
    },
    {
      "anonymous": false,
      "inputs": [
        {
          "indexed": true,
          "internalType": "address",
          "name": "owner",
          "type": "address"
        },
        {
          "indexed": true,
          "internalType": "address",
          "name": "approved",
          "type": "address"
        },
        {
          "indexed": true,
          "internalType": "uint256",
          "name": "tokenId",
          "type": "uint256"
        }
      ],
      "name": "Approval",
      "type": "event"
    },
    {
      "anonymous": false,
      "inputs": [
        {
          "indexed": true,
          "internalType": "address",
          "name": "owner",
          "type": "address"
        },
        {
          "indexed": true,
          "internalType": "address",
          "name": "operator",
          "type": "address"
        },
        {
          "indexed": false,
          "internalType": "bool",
          "name": "approved",
          "type": "bool"
        }
      ],
      "name": "ApprovalForAll",
      "type": "event"
    },
    {
      "anonymous": false,
      "inputs": [
        {
          "indexed": false,
          "internalType": "uint256",
          "name": "_fromTokenId",
          "type": "uint256"
        },
        {
          "indexed": false,
          "internalType": "uint256",
          "name": "_toTokenId",
          "type": "uint256"
        }
      ],
      "name": "BatchMetadataUpdate",
      "type": "event"
    },
    {
      "anonymous": false,
      "inputs": [
        {
          "indexed": false,
          "internalType": "uint256",
          "name": "_tokenId",
          "type": "uint256"
        }
      ],
      "name": "MetadataUpdate",
      "type": "event"
    },
    {
      "anonymous": false,
      "inputs": [
        {
          "indexed": true,
          "internalType": "uint256",
          "name": "tokenId",
          "type": "uint256"
        },
        {
          "indexed": false,
          "internalType": "address",
          "name": "owner",
          "type": "address"
        },
        {
          "indexed": false,
          "internalType": "address",
          "name": "seller",
          "type": "address"
        },
        {
          "indexed": false,
          "internalType": "uint256",
          "name": "price",
          "type": "uint256"
        },
        {
          "indexed": false,
          "internalType": "bool",
          "name": "currentlyListed",
          "type": "bool"
        }
      ],
      "name": "TokenListedSuccess",
      "type": "event"
    },
    {
      "anonymous": false,
      "inputs": [
        {
          "indexed": true,
          "internalType": "address",
          "name": "from",
          "type": "address"
        },
        {
          "indexed": true,
          "internalType": "address",
          "name": "to",
          "type": "address"
        },
        {
          "indexed": true,
          "internalType": "uint256",
          "name": "tokenId",
          "type": "uint256"
        }
      ],
      "name": "Transfer",
      "type": "event"
    },
    {
      "inputs": [
        {
          "internalType": "address",
          "name": "to",
          "type": "address"
        },
        {
          "internalType": "uint256",
          "name": "tokenId",
          "type": "uint256"
        }
      ],
      "name": "approve",
      "outputs": [],
      "stateMutability": "nonpayable",
      "type": "function"
    },
    {
      "inputs": [
        {
          "internalType": "address",
          "name": "owner",
          "type": "address"
        }
      ],
      "name": "balanceOf",
      "outputs": [
        {
          "internalType": "uint256",
          "name": "",
          "type": "uint256"
        }
      ],
      "stateMutability": "view",
      "type": "function"
    },
    {
      "inputs": [
        {
          "internalType": "string",
          "name": "tokenURI",
          "type": "string"
        },
        {
          "internalType": "uint256",
          "name": "price",
          "type": "uint256"
        }
      ],
      "name": "createToken",
      "outputs": [
        {
          "internalType": "uint256",
          "name": "",
          "type": "uint256"
        }
      ],
      "stateMutability": "payable",
      "type": "function"
    },
    {
      "inputs": [
        {
          "internalType": "uint256",
          "name": "tokenId",
          "type": "uint256"
        }
      ],
      "name": "executeSale",
      "outputs": [],
      "stateMutability": "payable",
      "type": "function"
    },
    {
      "inputs": [],
      "name": "getAllNFTs",
      "outputs": [
        {
          "components": [
            {
              "internalType": "uint256",
              "name": "tokenId",
              "type": "uint256"
            },
            {
              "internalType": "address payable",
              "name": "owner",
              "type": "address"
            },
            {
              "internalType": "address payable",
              "name": "seller",
              "type": "address"
            },
            {
              "internalType": "uint256",
              "name": "price",
              "type": "uint256"
            },
            {
              "internalType": "bool",
              "name": "currentlyListed",
              "type": "bool"
            }
          ],
          "internalType": "struct NFTMarketplace.ListedToken[]",
          "name": "",
          "type": "tuple[]"
        }
      ],
      "stateMutability": "view",
      "type": "function"
    },
    {
      "inputs": [
        {
          "internalType": "uint256",
          "name": "tokenId",
          "type": "uint256"
        }
      ],
      "name": "getApproved",
      "outputs": [
        {
          "internalType": "address",
          "name": "",
          "type": "address"
        }
      ],
      "stateMutability": "view",
      "type": "function"
    },
    {
      "inputs": [],
      "name": "getCurrentToken",
      "outputs": [
        {
          "internalType": "uint256",
          "name": "",
          "type": "uint256"
        }
      ],
      "stateMutability": "view",
      "type": "function"
    },
    {
      "inputs": [],
      "name": "getLatestIdToListedToken",
      "outputs": [
        {
          "components": [
            {
              "internalType": "uint256",
              "name": "tokenId",
              "type": "uint256"
            },
            {
              "internalType": "address payable",
              "name": "owner",
              "type": "address"
            },
            {
              "internalType": "address payable",
              "name": "seller",
              "type": "address"
            },
            {
              "internalType": "uint256",
              "name": "price",
              "type": "uint256"
            },
            {
              "internalType": "bool",
              "name": "currentlyListed",
              "type": "bool"
            }
          ],
          "internalType": "struct NFTMarketplace.ListedToken",
          "name": "",
          "type": "tuple"
        }
      ],
      "stateMutability": "view",
      "type": "function"
    },
    {
      "inputs": [],
      "name": "getListPrice",
      "outputs": [
        {
          "internalType": "uint256",
          "name": "",
          "type": "uint256"
        }
      ],
      "stateMutability": "view",
      "type": "function"
    },
    {
      "inputs": [
        {
          "internalType": "uint256",
          "name": "tokenId",
          "type": "uint256"
        }
      ],
      "name": "getListedTokenForId",
      "outputs": [
        {
          "components": [
            {
              "internalType": "uint256",
              "name": "tokenId",
              "type": "uint256"
            },
            {
              "internalType": "address payable",
              "name": "owner",
              "type": "address"
            },
            {
              "internalType": "address payable",
              "name": "seller",
              "type": "address"
            },
            {
              "internalType": "uint256",
              "name": "price",
              "type": "uint256"
            },
            {
              "internalType": "bool",
              "name": "currentlyListed",
              "type": "bool"
            }
          ],
          "internalType": "struct NFTMarketplace.ListedToken",
          "name": "",
          "type": "tuple"
        }
      ],
      "stateMutability": "view",
      "type": "function"
    },
    {
      "inputs": [],
      "name": "getMyNFTs",
      "outputs": [
        {
          "components": [
            {
              "internalType": "uint256",
              "name": "tokenId",
              "type": "uint256"
            },
            {
              "internalType": "address payable",
              "name": "owner",
              "type": "address"
            },
            {
              "internalType": "address payable",
              "name": "seller",
              "type": "address"
            },
            {
              "internalType": "uint256",
              "name": "price",
              "type": "uint256"
            },
            {
              "internalType": "bool",
              "name": "currentlyListed",
              "type": "bool"
            }
          ],
          "internalType": "struct NFTMarketplace.ListedToken[]",
          "name": "",
          "type": "tuple[]"
        }
      ],
      "stateMutability": "view",
      "type": "function"
    },
    {
      "inputs": [
        {
          "internalType": "address",
          "name": "owner",
          "type": "address"
        },
        {
          "internalType": "address",
          "name": "operator",
          "type": "address"
        }
      ],
      "name": "isApprovedForAll",
      "outputs": [
        {
          "internalType": "bool",
          "name": "",
          "type": "bool"
        }
      ],
      "stateMutability": "view",
      "type": "function"
    },
    {
      "inputs": [],
      "name": "name",
      "outputs": [
        {
          "internalType": "string",
          "name": "",
          "type": "string"
        }
      ],
      "stateMutability": "view",
      "type": "function"
    },
    {
      "inputs": [
        {
          "internalType": "uint256",
          "name": "tokenId",
          "type": "uint256"
        }
      ],
      "name": "ownerOf",
      "outputs": [
        {
          "internalType": "address",
          "name": "",
          "type": "address"
        }
      ],
      "stateMutability": "view",
      "type": "function"
    },
    {
      "inputs": [
        {
          "internalType": "address",
          "name": "from",
          "type": "address"
        },
        {
          "internalType": "address",
          "name": "to",
          "type": "address"
        },
        {
          "internalType": "uint256",
          "name": "tokenId",
          "type": "uint256"
        }
      ],
      "name": "safeTransferFrom",
      "outputs": [],
      "stateMutability": "nonpayable",
      "type": "function"
    },
    {
      "inputs": [
        {
          "internalType": "address",
          "name": "from",
          "type": "address"
        },
        {
          "internalType": "address",
          "name": "to",
          "type": "address"
        },
        {
          "internalType": "uint256",
          "name": "tokenId",
          "type": "uint256"
        },
        {
          "internalType": "bytes",
          "name": "data",
          "type": "bytes"
        }
      ],
      "name": "safeTransferFrom",
      "outputs": [],
      "stateMutability": "nonpayable",
      "type": "function"
    },
    {
      "inputs": [
        {
          "internalType": "address",
          "name": "operator",
          "type": "address"
        },
        {
          "internalType": "bool",
          "name": "approved",
          "type": "bool"
        }
      ],
      "name": "setApprovalForAll",
      "outputs": [],
      "stateMutability": "nonpayable",
      "type": "function"
    },
    {
      "inputs": [
        {
          "internalType": "bytes4",
          "name": "interfaceId",
          "type": "bytes4"
        }
      ],
      "name": "supportsInterface",
      "outputs": [
        {
          "internalType": "bool",
          "name": "",
          "type": "bool"
        }
      ],
      "stateMutability": "view",
      "type": "function"
    },
    {
      "inputs": [],
      "name": "symbol",
      "outputs": [
        {
          "internalType": "string",
          "name": "",
          "type": "string"
        }
      ],
      "stateMutability": "view",
      "type": "function"
    },
    {
      "inputs": [
        {
          "internalType": "uint256",
          "name": "tokenId",
          "type": "uint256"
        }
      ],
      "name": "tokenURI",
      "outputs": [
        {
          "internalType": "string",
          "name": "",
          "type": "string"
        }
      ],
      "stateMutability": "view",
      "type": "function"
    },
    {
      "inputs": [
        {
          "internalType": "address",
          "name": "from",
          "type": "address"
        },
        {
          "internalType": "address",
          "name": "to",
          "type": "address"
        },
        {
          "internalType": "uint256",
          "name": "tokenId",
          "type": "uint256"
        }
      ],
      "name": "transferFrom",
      "outputs": [],
      "stateMutability": "nonpayable",
      "type": "function"
    },
    {
      "inputs": [
        {
          "internalType": "uint256",
          "name": "_listPrice",
          "type": "uint256"
        }
      ],
      "name": "updateListPrice",
      "outputs": [],
      "stateMutability": "payable",
      "type": "function"
    }
  ],
  "bytecode": "0x6080604052662386f26fc10000600a553480156200001c57600080fd5b506040518060400160405280600e81526020017f4e46544d61726b6574706c6163650000000000000000000000000000000000008152506040518060400160405280600481526020017f4e46544d000000000000000000000000000000000000000000000000000000008152508160009080519060200190620000a192919062000104565b508060019080519060200190620000ba92919062000104565b50505033600960006101000a81548173ffffffffffffffffffffffffffffffffffffffff021916908373ffffffffffffffffffffffffffffffffffffffff16021790555062000219565b8280546200011290620001b4565b90600052602060002090601f01602090048101928262000136576000855562000182565b82601f106200015157805160ff191683800117855562000182565b8280016001018555821562000182579182015b828111156200018157825182559160200191906001019062000164565b5b50905062000191919062000195565b5090565b5b80821115620001b057600081600090555060010162000196565b5090565b60006002820490506001821680620001cd57607f821691505b60208210811415620001e457620001e3620001ea565b5b50919050565b7f4e487b7100000000000000000000000000000000000000000000000000000000600052602260045260246000fd5b613f6c80620002296000396000f3fe6080604052600436106101355760003560e01c80638e264590116100ab578063c322579c1161006f578063c322579c14610430578063c87b56dd1461044c578063d1a88ae514610489578063e0391b09146104b4578063e985e9c5146104df578063ef2d17461461051c57610135565b80638e2645901461035a57806395d89b41146103975780639b1225c4146103c2578063a22cb465146103de578063b88d4fde1461040757610135565b806342842e0e116100fd57806342842e0e14610231578063629cb2e41461025a5780636352211e1461028557806368f1945f146102c257806370a08231146102ed57806372b3b6201461032a57610135565b806301ffc9a71461013a57806306fdde0314610177578063081812fc146101a2578063095ea7b3146101df57806323b872dd14610208575b600080fd5b34801561014657600080fd5b50610161600480360381019061015c9190612e70565b610547565b60405161016e91906134a4565b60405180910390f35b34801561018357600080fd5b5061018c6105a8565b60405161019991906134bf565b60405180910390f35b3480156101ae57600080fd5b506101c960048036038101906101c49190612f16565b61063a565b6040516101d691906133d6565b60405180910390f35b3480156101eb57600080fd5b5061020660048036038101906102019190612e34565b610680565b005b34801561021457600080fd5b5061022f600480360381019061022a9190612d2e565b610798565b005b34801561023d57600080fd5b5061025860048036038101906102539190612d2e565b6107f8565b005b34801561026657600080fd5b5061026f610818565b60405161027c9190613482565b60405180910390f35b34801561029157600080fd5b506102ac60048036038101906102a79190612f16565b610c45565b6040516102b991906133d6565b60405180910390f35b3480156102ce57600080fd5b506102d7610ccc565b6040516102e491906136fc565b60405180910390f35b3480156102f957600080fd5b50610314600480360381019061030f9190612cc9565b610cd6565b60405161032191906136fc565b60405180910390f35b610344600480360381019061033f9190612ec2565b610d8e565b60405161035191906136fc565b60405180910390f35b34801561036657600080fd5b50610381600480360381019061037c9190612f16565b610dd0565b60405161038e91906136e1565b60405180910390f35b3480156103a357600080fd5b506103ac610ed8565b6040516103b991906134bf565b60405180910390f35b6103dc60048036038101906103d79190612f16565b610f6a565b005b3480156103ea57600080fd5b5061040560048036038101906104009190612df8565b61115c565b005b34801561041357600080fd5b5061042e60048036038101906104299190612d7d565b611172565b005b61044a60048036038101906104459190612f16565b6111d4565b005b34801561045857600080fd5b50610473600480360381019061046e9190612f16565b61126e565b60405161048091906134bf565b60405180910390f35b34801561049557600080fd5b5061049e611381565b6040516104ab91906136e1565b60405180910390f35b3480156104c057600080fd5b506104c9611496565b6040516104d69190613482565b60405180910390f35b3480156104eb57600080fd5b5061050660048036038101906105019190612cf2565b6116b4565b60405161051391906134a4565b60405180910390f35b34801561052857600080fd5b50610531611748565b60405161053e91906136fc565b60405180910390f35b6000634906490660e01b7bffffffffffffffffffffffffffffffffffffffffffffffffffffffff1916827bffffffffffffffffffffffffffffffffffffffffffffffffffffffff191614806105a157506105a082611759565b5b9050919050565b6060600080546105b790613938565b80601f01602080910402602001604051908101604052809291908181526020018280546105e390613938565b80156106305780601f1061060557610100808354040283529160200191610630565b820191906000526020600020905b81548152906001019060200180831161061357829003601f168201915b5050505050905090565b60006106458261183b565b6004600083815260200190815260200160002060009054906101000a900473ffffffffffffffffffffffffffffffffffffffff169050919050565b600061068b82610c45565b90508073ffffffffffffffffffffffffffffffffffffffff168373ffffffffffffffffffffffffffffffffffffffff1614156106fc576040517f08c379a00000000000000000000000000000000000000000000000000000000081526004016106f390613681565b60405180910390fd5b8073ffffffffffffffffffffffffffffffffffffffff1661071b611886565b73ffffffffffffffffffffffffffffffffffffffff16148061074a575061074981610744611886565b6116b4565b5b610789576040517f08c379a0000000000000000000000000000000000000000000000000000000008152600401610780906136a1565b60405180910390fd5b610793838361188e565b505050565b6107a96107a3611886565b82611947565b6107e8576040517f08c379a00000000000000000000000000000000000000000000000000000000081526004016107df906134e1565b60405180910390fd5b6107f38383836119dc565b505050565b61081383838360405180602001604052806000815250611172565b505050565b606060006108266007611cd6565b9050600080600080600090505b8481101561094c573373ffffffffffffffffffffffffffffffffffffffff16600b6000600184610863919061381a565b815260200190815260200160002060010160009054906101000a900473ffffffffffffffffffffffffffffffffffffffff1673ffffffffffffffffffffffffffffffffffffffff16148061092457503373ffffffffffffffffffffffffffffffffffffffff16600b60006001846108da919061381a565b815260200190815260200160002060020160009054906101000a900473ffffffffffffffffffffffffffffffffffffffff1673ffffffffffffffffffffffffffffffffffffffff16145b1561093957600184610936919061381a565b93505b80806109449061399b565b915050610833565b5060008367ffffffffffffffff81111561098f577f4e487b7100000000000000000000000000000000000000000000000000000000600052604160045260246000fd5b6040519080825280602002602001820160405280156109c857816020015b6109b5612a90565b8152602001906001900390816109ad5790505b50905060005b85811015610c39573373ffffffffffffffffffffffffffffffffffffffff16600b60006001846109fe919061381a565b815260200190815260200160002060010160009054906101000a900473ffffffffffffffffffffffffffffffffffffffff1673ffffffffffffffffffffffffffffffffffffffff161480610abf57503373ffffffffffffffffffffffffffffffffffffffff16600b6000600184610a75919061381a565b815260200190815260200160002060020160009054906101000a900473ffffffffffffffffffffffffffffffffffffffff1673ffffffffffffffffffffffffffffffffffffffff16145b15610c2657600181610ad1919061381a565b92506000600b60008581526020019081526020016000209050806040518060a0016040529081600082015481526020016001820160009054906101000a900473ffffffffffffffffffffffffffffffffffffffff1673ffffffffffffffffffffffffffffffffffffffff1673ffffffffffffffffffffffffffffffffffffffff1681526020016002820160009054906101000a900473ffffffffffffffffffffffffffffffffffffffff1673ffffffffffffffffffffffffffffffffffffffff1673ffffffffffffffffffffffffffffffffffffffff168152602001600382015481526020016004820160009054906101000a900460ff161515151581525050838681518110610c0a577f4e487b7100000000000000000000000000000000000000000000000000000000600052603260045260246000fd5b6020026020010181905250600185610c22919061381a565b9450505b8080610c319061399b565b9150506109ce565b50809550505050505090565b600080610c5183611ce4565b9050600073ffffffffffffffffffffffffffffffffffffffff168173ffffffffffffffffffffffffffffffffffffffff161415610cc3576040517f08c379a0000000000000000000000000000000000000000000000000000000008152600401610cba90613661565b60405180910390fd5b80915050919050565b6000600a54905090565b60008073ffffffffffffffffffffffffffffffffffffffff168273ffffffffffffffffffffffffffffffffffffffff161415610d47576040517f08c379a0000000000000000000000000000000000000000000000000000000008152600401610d3e906135c1565b60405180910390fd5b600360008373ffffffffffffffffffffffffffffffffffffffff1673ffffffffffffffffffffffffffffffffffffffff168152602001908152602001600020549050919050565b6000610d9a6007611d21565b6000610da66007611cd6565b9050610db23382611d37565b610dbc8185611d55565b610dc68184611e00565b8091505092915050565b610dd8612a90565b600b60008381526020019081526020016000206040518060a0016040529081600082015481526020016001820160009054906101000a900473ffffffffffffffffffffffffffffffffffffffff1673ffffffffffffffffffffffffffffffffffffffff1673ffffffffffffffffffffffffffffffffffffffff1681526020016002820160009054906101000a900473ffffffffffffffffffffffffffffffffffffffff1673ffffffffffffffffffffffffffffffffffffffff1673ffffffffffffffffffffffffffffffffffffffff168152602001600382015481526020016004820160009054906101000a900460ff1615151515815250509050919050565b606060018054610ee790613938565b80601f0160208091040260200160405190810160405280929190818152602001828054610f1390613938565b8015610f605780601f10610f3557610100808354040283529160200191610f60565b820191906000526020600020905b815481529060010190602001808311610f4357829003601f168201915b5050505050905090565b6000600b60008381526020019081526020016000206003015490506000600b600084815260200190815260200160002060020160009054906101000a900473ffffffffffffffffffffffffffffffffffffffff169050813414611002576040517f08c379a0000000000000000000000000000000000000000000000000000000008152600401610ff990613601565b60405180910390fd5b6001600b600085815260200190815260200160002060040160006101000a81548160ff02191690831515021790555033600b600085815260200190815260200160002060020160006101000a81548173ffffffffffffffffffffffffffffffffffffffff021916908373ffffffffffffffffffffffffffffffffffffffff1602179055506110906008611d21565b61109b3033856119dc565b6110a53084610680565b600960009054906101000a900473ffffffffffffffffffffffffffffffffffffffff1673ffffffffffffffffffffffffffffffffffffffff166108fc600a549081150290604051600060405180830381858888f1935050505015801561110f573d6000803e3d6000fd5b508073ffffffffffffffffffffffffffffffffffffffff166108fc349081150290604051600060405180830381858888f19350505050158015611156573d6000803e3d6000fd5b50505050565b61116e611167611886565b8383612003565b5050565b61118361117d611886565b83611947565b6111c2576040517f08c379a00000000000000000000000000000000000000000000000000000000081526004016111b9906134e1565b60405180910390fd5b6111ce84848484612170565b50505050565b3373ffffffffffffffffffffffffffffffffffffffff16600960009054906101000a900473ffffffffffffffffffffffffffffffffffffffff1673ffffffffffffffffffffffffffffffffffffffff1614611264576040517f08c379a000000000000000000000000000000000000000000000000000000000815260040161125b906135a1565b60405180910390fd5b80600a8190555050565b60606112798261183b565b600060066000848152602001908152602001600020805461129990613938565b80601f01602080910402602001604051908101604052809291908181526020018280546112c590613938565b80156113125780601f106112e757610100808354040283529160200191611312565b820191906000526020600020905b8154815290600101906020018083116112f557829003601f168201915b5050505050905060006113236121cc565b905060008151141561133957819250505061137c565b60008251111561136e5780826040516020016113569291906133b2565b6040516020818303038152906040529250505061137c565b611377846121e3565b925050505b919050565b611389612a90565b60006113956007611cd6565b9050600b60008281526020019081526020016000206040518060a0016040529081600082015481526020016001820160009054906101000a900473ffffffffffffffffffffffffffffffffffffffff1673ffffffffffffffffffffffffffffffffffffffff1673ffffffffffffffffffffffffffffffffffffffff1681526020016002820160009054906101000a900473ffffffffffffffffffffffffffffffffffffffff1673ffffffffffffffffffffffffffffffffffffffff1673ffffffffffffffffffffffffffffffffffffffff168152602001600382015481526020016004820160009054906101000a900460ff16151515158152505091505090565b606060006114a46007611cd6565b905060008167ffffffffffffffff8111156114e8577f4e487b7100000000000000000000000000000000000000000000000000000000600052604160045260246000fd5b60405190808252806020026020018201604052801561152157816020015b61150e612a90565b8152602001906001900390816115065790505b50905060008080600090505b848110156116a957600181611542919061381a565b91506000600b60008481526020019081526020016000209050806040518060a0016040529081600082015481526020016001820160009054906101000a900473ffffffffffffffffffffffffffffffffffffffff1673ffffffffffffffffffffffffffffffffffffffff1673ffffffffffffffffffffffffffffffffffffffff1681526020016002820160009054906101000a900473ffffffffffffffffffffffffffffffffffffffff1673ffffffffffffffffffffffffffffffffffffffff1673ffffffffffffffffffffffffffffffffffffffff168152602001600382015481526020016004820160009054906101000a900460ff16151515158152505085858151811061167b577f4e487b7100000000000000000000000000000000000000000000000000000000600052603260045260246000fd5b6020026020010181905250600184611693919061381a565b93505080806116a19061399b565b91505061152d565b508294505050505090565b6000600560008473ffffffffffffffffffffffffffffffffffffffff1673ffffffffffffffffffffffffffffffffffffffff16815260200190815260200160002060008373ffffffffffffffffffffffffffffffffffffffff1673ffffffffffffffffffffffffffffffffffffffff16815260200190815260200160002060009054906101000a900460ff16905092915050565b60006117546007611cd6565b905090565b60007f80ac58cd000000000000000000000000000000000000000000000000000000007bffffffffffffffffffffffffffffffffffffffffffffffffffffffff1916827bffffffffffffffffffffffffffffffffffffffffffffffffffffffff1916148061182457507f5b5e139f000000000000000000000000000000000000000000000000000000007bffffffffffffffffffffffffffffffffffffffffffffffffffffffff1916827bffffffffffffffffffffffffffffffffffffffffffffffffffffffff1916145b8061183457506118338261224b565b5b9050919050565b611844816122b5565b611883576040517f08c379a000000000000000000000000000000000000000000000000000000000815260040161187a90613661565b60405180910390fd5b50565b600033905090565b816004600083815260200190815260200160002060006101000a81548173ffffffffffffffffffffffffffffffffffffffff021916908373ffffffffffffffffffffffffffffffffffffffff160217905550808273ffffffffffffffffffffffffffffffffffffffff1661190183610c45565b73ffffffffffffffffffffffffffffffffffffffff167f8c5be1e5ebec7d5bd14f71427d1e84f3dd0314c0f7b2291e5b200ac8c7c3b92560405160405180910390a45050565b60008061195383610c45565b90508073ffffffffffffffffffffffffffffffffffffffff168473ffffffffffffffffffffffffffffffffffffffff161480611995575061199481856116b4565b5b806119d357508373ffffffffffffffffffffffffffffffffffffffff166119bb8461063a565b73ffffffffffffffffffffffffffffffffffffffff16145b91505092915050565b8273ffffffffffffffffffffffffffffffffffffffff166119fc82610c45565b73ffffffffffffffffffffffffffffffffffffffff1614611a52576040517f08c379a0000000000000000000000000000000000000000000000000000000008152600401611a4990613521565b60405180910390fd5b600073ffffffffffffffffffffffffffffffffffffffff168273ffffffffffffffffffffffffffffffffffffffff161415611ac2576040517f08c379a0000000000000000000000000000000000000000000000000000000008152600401611ab990613561565b60405180910390fd5b611acf83838360016122f6565b8273ffffffffffffffffffffffffffffffffffffffff16611aef82610c45565b73ffffffffffffffffffffffffffffffffffffffff1614611b45576040517f08c379a0000000000000000000000000000000000000000000000000000000008152600401611b3c90613521565b60405180910390fd5b6004600082815260200190815260200160002060006101000a81549073ffffffffffffffffffffffffffffffffffffffff02191690556001600360008573ffffffffffffffffffffffffffffffffffffffff1673ffffffffffffffffffffffffffffffffffffffff168152602001908152602001600020600082825403925050819055506001600360008473ffffffffffffffffffffffffffffffffffffffff1673ffffffffffffffffffffffffffffffffffffffff16815260200190815260200160002060008282540192505081905550816002600083815260200190815260200160002060006101000a81548173ffffffffffffffffffffffffffffffffffffffff021916908373ffffffffffffffffffffffffffffffffffffffff160217905550808273ffffffffffffffffffffffffffffffffffffffff168473ffffffffffffffffffffffffffffffffffffffff167fddf252ad1be2c89b69c2b068fc378daa952ba7f163c4a11628f55a4df523b3ef60405160405180910390a4611cd183838360016122fc565b505050565b600081600001549050919050565b60006002600083815260200190815260200160002060009054906101000a900473ffffffffffffffffffffffffffffffffffffffff169050919050565b6001816000016000828254019250508190555050565b611d51828260405180602001604052806000815250612302565b5050565b611d5e826122b5565b611d9d576040517f08c379a0000000000000000000000000000000000000000000000000000000008152600401611d94906135e1565b60405180910390fd5b80600660008481526020019081526020016000209080519060200190611dc4929190612aed565b507ff8e1a15aba9398e019f0b49df1a4fde98ee17ae345cb5f6b5e2c27f5033e8ce782604051611df491906136fc565b60405180910390a15050565b600a543414611e44576040517f08c379a0000000000000000000000000000000000000000000000000000000008152600401611e3b90613641565b60405180910390fd5b60008111611e87576040517f08c379a0000000000000000000000000000000000000000000000000000000008152600401611e7e906136c1565b60405180910390fd5b6040518060a001604052808381526020013073ffffffffffffffffffffffffffffffffffffffff1681526020013373ffffffffffffffffffffffffffffffffffffffff16815260200182815260200160011515815250600b60008481526020019081526020016000206000820151816000015560208201518160010160006101000a81548173ffffffffffffffffffffffffffffffffffffffff021916908373ffffffffffffffffffffffffffffffffffffffff16021790555060408201518160020160006101000a81548173ffffffffffffffffffffffffffffffffffffffff021916908373ffffffffffffffffffffffffffffffffffffffff1602179055506060820151816003015560808201518160040160006101000a81548160ff021916908315150217905550905050611fc03330846119dc565b817f9339409317fd01fabff48b703019016f49159bacc801ae872d2ca637d226e4c03033846001604051611ff794939291906133f1565b60405180910390a25050565b8173ffffffffffffffffffffffffffffffffffffffff168373ffffffffffffffffffffffffffffffffffffffff161415612072576040517f08c379a000000000000000000000000000000000000000000000000000000000815260040161206990613581565b60405180910390fd5b80600560008573ffffffffffffffffffffffffffffffffffffffff1673ffffffffffffffffffffffffffffffffffffffff16815260200190815260200160002060008473ffffffffffffffffffffffffffffffffffffffff1673ffffffffffffffffffffffffffffffffffffffff16815260200190815260200160002060006101000a81548160ff0219169083151502179055508173ffffffffffffffffffffffffffffffffffffffff168373ffffffffffffffffffffffffffffffffffffffff167f17307eab39ab6107e8899845ad3d59bd9653f200f220920489ca2b5937696c318360405161216391906134a4565b60405180910390a3505050565b61217b8484846119dc565b6121878484848461235d565b6121c6576040517f08c379a00000000000000000000000000000000000000000000000000000000081526004016121bd90613501565b60405180910390fd5b50505050565b606060405180602001604052806000815250905090565b60606121ee8261183b565b60006121f86121cc565b905060008151116122185760405180602001604052806000815250612243565b80612222846124f4565b6040516020016122339291906133b2565b6040516020818303038152906040525b915050919050565b60007f01ffc9a7000000000000000000000000000000000000000000000000000000007bffffffffffffffffffffffffffffffffffffffffffffffffffffffff1916827bffffffffffffffffffffffffffffffffffffffffffffffffffffffff1916149050919050565b60008073ffffffffffffffffffffffffffffffffffffffff166122d783611ce4565b73ffffffffffffffffffffffffffffffffffffffff1614159050919050565b50505050565b50505050565b61230c8383612618565b612319600084848461235d565b612358576040517f08c379a000000000000000000000000000000000000000000000000000000000815260040161234f90613501565b60405180910390fd5b505050565b600061237e8473ffffffffffffffffffffffffffffffffffffffff16612836565b156124e7578373ffffffffffffffffffffffffffffffffffffffff1663150b7a026123a7611886565b8786866040518563ffffffff1660e01b81526004016123c99493929190613436565b602060405180830381600087803b1580156123e357600080fd5b505af192505050801561241457506040513d601f19601f820116820180604052508101906124119190612e99565b60015b612497573d8060008114612444576040519150601f19603f3d011682016040523d82523d6000602084013e612449565b606091505b5060008151141561248f576040517f08c379a000000000000000000000000000000000000000000000000000000000815260040161248690613501565b60405180910390fd5b805181602001fd5b63150b7a0260e01b7bffffffffffffffffffffffffffffffffffffffffffffffffffffffff1916817bffffffffffffffffffffffffffffffffffffffffffffffffffffffff1916149150506124ec565b600190505b949350505050565b60606000600161250384612859565b01905060008167ffffffffffffffff811115612548577f4e487b7100000000000000000000000000000000000000000000000000000000600052604160045260246000fd5b6040519080825280601f01601f19166020018201604052801561257a5781602001600182028036833780820191505090505b509050600082602001820190505b60011561260d578080600190039150507f3031323334353637383961626364656600000000000000000000000000000000600a86061a8153600a85816125f7577f4e487b7100000000000000000000000000000000000000000000000000000000600052601260045260246000fd5b04945060008514156126085761260d565b612588565b819350505050919050565b600073ffffffffffffffffffffffffffffffffffffffff168273ffffffffffffffffffffffffffffffffffffffff161415612688576040517f08c379a000000000000000000000000000000000000000000000000000000000815260040161267f90613621565b60405180910390fd5b612691816122b5565b156126d1576040517f08c379a00000000000000000000000000000000000000000000000000000000081526004016126c890613541565b60405180910390fd5b6126df6000838360016122f6565b6126e8816122b5565b15612728576040517f08c379a000000000000000000000000000000000000000000000000000000000815260040161271f90613541565b60405180910390fd5b6001600360008473ffffffffffffffffffffffffffffffffffffffff1673ffffffffffffffffffffffffffffffffffffffff16815260200190815260200160002060008282540192505081905550816002600083815260200190815260200160002060006101000a81548173ffffffffffffffffffffffffffffffffffffffff021916908373ffffffffffffffffffffffffffffffffffffffff160217905550808273ffffffffffffffffffffffffffffffffffffffff16600073ffffffffffffffffffffffffffffffffffffffff167fddf252ad1be2c89b69c2b068fc378daa952ba7f163c4a11628f55a4df523b3ef60405160405180910390a46128326000838360016122fc565b5050565b6000808273ffffffffffffffffffffffffffffffffffffffff163b119050919050565b600080600090507a184f03e93ff9f4daa797ed6e38ed64bf6a1f01000000000000000083106128dd577a184f03e93ff9f4daa797ed6e38ed64bf6a1f01000000000000000083816128d3577f4e487b7100000000000000000000000000000000000000000000000000000000600052601260045260246000fd5b0492506040810190505b6d04ee2d6d415b85acef81000000008310612940576d04ee2d6d415b85acef81000000008381612936577f4e487b7100000000000000000000000000000000000000000000000000000000600052601260045260246000fd5b0492506020810190505b662386f26fc10000831061299557662386f26fc10000838161298b577f4e487b7100000000000000000000000000000000000000000000000000000000600052601260045260246000fd5b0492506010810190505b6305f5e10083106129e4576305f5e10083816129da577f4e487b7100000000000000000000000000000000000000000000000000000000600052601260045260246000fd5b0492506008810190505b6127108310612a2f576127108381612a25577f4e487b7100000000000000000000000000000000000000000000000000000000600052601260045260246000fd5b0492506004810190505b60648310612a785760648381612a6e577f4e487b7100000000000000000000000000000000000000000000000000000000600052601260045260246000fd5b0492506002810190505b600a8310612a87576001810190505b80915050919050565b6040518060a0016040528060008152602001600073ffffffffffffffffffffffffffffffffffffffff168152602001600073ffffffffffffffffffffffffffffffffffffffff168152602001600081526020016000151581525090565b828054612af990613938565b90600052602060002090601f016020900481019282612b1b5760008555612b62565b82601f10612b3457805160ff1916838001178555612b62565b82800160010185558215612b62579182015b82811115612b61578251825591602001919060010190612b46565b5b509050612b6f9190612b73565b5090565b5b80821115612b8c576000816000905550600101612b74565b5090565b6000612ba3612b9e8461373c565b613717565b905082815260208101848484011115612bbb57600080fd5b612bc68482856138f6565b509392505050565b6000612be1612bdc8461376d565b613717565b905082815260208101848484011115612bf957600080fd5b612c048482856138f6565b509392505050565b600081359050612c1b81613eda565b92915050565b600081359050612c3081613ef1565b92915050565b600081359050612c4581613f08565b92915050565b600081519050612c5a81613f08565b92915050565b600082601f830112612c7157600080fd5b8135612c81848260208601612b90565b91505092915050565b600082601f830112612c9b57600080fd5b8135612cab848260208601612bce565b91505092915050565b600081359050612cc381613f1f565b92915050565b600060208284031215612cdb57600080fd5b6000612ce984828501612c0c565b91505092915050565b60008060408385031215612d0557600080fd5b6000612d1385828601612c0c565b9250506020612d2485828601612c0c565b9150509250929050565b600080600060608486031215612d4357600080fd5b6000612d5186828701612c0c565b9350506020612d6286828701612c0c565b9250506040612d7386828701612cb4565b9150509250925092565b60008060008060808587031215612d9357600080fd5b6000612da187828801612c0c565b9450506020612db287828801612c0c565b9350506040612dc387828801612cb4565b925050606085013567ffffffffffffffff811115612de057600080fd5b612dec87828801612c60565b91505092959194509250565b60008060408385031215612e0b57600080fd5b6000612e1985828601612c0c565b9250506020612e2a85828601612c21565b9150509250929050565b60008060408385031215612e4757600080fd5b6000612e5585828601612c0c565b9250506020612e6685828601612cb4565b9150509250929050565b600060208284031215612e8257600080fd5b6000612e9084828501612c36565b91505092915050565b600060208284031215612eab57600080fd5b6000612eb984828501612c4b565b91505092915050565b60008060408385031215612ed557600080fd5b600083013567ffffffffffffffff811115612eef57600080fd5b612efb85828601612c8a565b9250506020612f0c85828601612cb4565b9150509250929050565b600060208284031215612f2857600080fd5b6000612f3684828501612cb4565b91505092915050565b6000612f4b83836132c4565b60a08301905092915050565b612f6081613882565b82525050565b612f6f81613870565b82525050565b6000612f80826137ae565b612f8a81856137dc565b9350612f958361379e565b8060005b83811015612fc6578151612fad8882612f3f565b9750612fb8836137cf565b925050600181019050612f99565b5085935050505092915050565b612fdc81613894565b82525050565b612feb81613894565b82525050565b6000612ffc826137b9565b61300681856137ed565b9350613016818560208601613905565b61301f81613a71565b840191505092915050565b6000613035826137c4565b61303f81856137fe565b935061304f818560208601613905565b61305881613a71565b840191505092915050565b600061306e826137c4565b613078818561380f565b9350613088818560208601613905565b80840191505092915050565b60006130a1602d836137fe565b91506130ac82613a82565b604082019050919050565b60006130c46032836137fe565b91506130cf82613ad1565b604082019050919050565b60006130e76025836137fe565b91506130f282613b20565b604082019050919050565b600061310a601c836137fe565b915061311582613b6f565b602082019050919050565b600061312d6024836137fe565b915061313882613b98565b604082019050919050565b60006131506019836137fe565b915061315b82613be7565b602082019050919050565b60006131736023836137fe565b915061317e82613c10565b604082019050919050565b60006131966029836137fe565b91506131a182613c5f565b604082019050919050565b60006131b9602e836137fe565b91506131c482613cae565b604082019050919050565b60006131dc6040836137fe565b91506131e782613cfd565b604082019050919050565b60006131ff6020836137fe565b915061320a82613d4c565b602082019050919050565b60006132226023836137fe565b915061322d82613d75565b604082019050919050565b60006132456018836137fe565b915061325082613dc4565b602082019050919050565b60006132686021836137fe565b915061327382613ded565b604082019050919050565b600061328b603d836137fe565b915061329682613e3c565b604082019050919050565b60006132ae6022836137fe565b91506132b982613e8b565b604082019050919050565b60a0820160008201516132da6000850182613394565b5060208201516132ed6020850182612f57565b5060408201516133006040850182612f57565b5060608201516133136060850182613394565b5060808201516133266080850182612fd3565b50505050565b60a0820160008201516133426000850182613394565b5060208201516133556020850182612f57565b5060408201516133686040850182612f57565b50606082015161337b6060850182613394565b50608082015161338e6080850182612fd3565b50505050565b61339d816138ec565b82525050565b6133ac816138ec565b82525050565b60006133be8285613063565b91506133ca8284613063565b91508190509392505050565b60006020820190506133eb6000830184612f66565b92915050565b60006080820190506134066000830187612f66565b6134136020830186612f66565b61342060408301856133a3565b61342d6060830184612fe2565b95945050505050565b600060808201905061344b6000830187612f66565b6134586020830186612f66565b61346560408301856133a3565b81810360608301526134778184612ff1565b905095945050505050565b6000602082019050818103600083015261349c8184612f75565b905092915050565b60006020820190506134b96000830184612fe2565b92915050565b600060208201905081810360008301526134d9818461302a565b905092915050565b600060208201905081810360008301526134fa81613094565b9050919050565b6000602082019050818103600083015261351a816130b7565b9050919050565b6000602082019050818103600083015261353a816130da565b9050919050565b6000602082019050818103600083015261355a816130fd565b9050919050565b6000602082019050818103600083015261357a81613120565b9050919050565b6000602082019050818103600083015261359a81613143565b9050919050565b600060208201905081810360008301526135ba81613166565b9050919050565b600060208201905081810360008301526135da81613189565b9050919050565b600060208201905081810360008301526135fa816131ac565b9050919050565b6000602082019050818103600083015261361a816131cf565b9050919050565b6000602082019050818103600083015261363a816131f2565b9050919050565b6000602082019050818103600083015261365a81613215565b9050919050565b6000602082019050818103600083015261367a81613238565b9050919050565b6000602082019050818103600083015261369a8161325b565b9050919050565b600060208201905081810360008301526136ba8161327e565b9050919050565b600060208201905081810360008301526136da816132a1565b9050919050565b600060a0820190506136f6600083018461332c565b92915050565b600060208201905061371160008301846133a3565b92915050565b6000613721613732565b905061372d828261396a565b919050565b6000604051905090565b600067ffffffffffffffff82111561375757613756613a42565b5b61376082613a71565b9050602081019050919050565b600067ffffffffffffffff82111561378857613787613a42565b5b61379182613a71565b9050602081019050919050565b6000819050602082019050919050565b600081519050919050565b600081519050919050565b600081519050919050565b6000602082019050919050565b600082825260208201905092915050565b600082825260208201905092915050565b600082825260208201905092915050565b600081905092915050565b6000613825826138ec565b9150613830836138ec565b9250827fffffffffffffffffffffffffffffffffffffffffffffffffffffffffffffffff03821115613865576138646139e4565b5b828201905092915050565b600061387b826138cc565b9050919050565b600061388d826138cc565b9050919050565b60008115159050919050565b60007fffffffff0000000000000000000000000000000000000000000000000000000082169050919050565b600073ffffffffffffffffffffffffffffffffffffffff82169050919050565b6000819050919050565b82818337600083830152505050565b60005b83811015613923578082015181840152602081019050613908565b83811115613932576000848401525b50505050565b6000600282049050600182168061395057607f821691505b6020821081141561396457613963613a13565b5b50919050565b61397382613a71565b810181811067ffffffffffffffff8211171561399257613991613a42565b5b80604052505050565b60006139a6826138ec565b91507fffffffffffffffffffffffffffffffffffffffffffffffffffffffffffffffff8214156139d9576139d86139e4565b5b600182019050919050565b7f4e487b7100000000000000000000000000000000000000000000000000000000600052601160045260246000fd5b7f4e487b7100000000000000000000000000000000000000000000000000000000600052602260045260246000fd5b7f4e487b7100000000000000000000000000000000000000000000000000000000600052604160045260246000fd5b6000601f19601f8301169050919050565b7f4552433732313a2063616c6c6572206973206e6f7420746f6b656e206f776e6560008201527f72206f7220617070726f76656400000000000000000000000000000000000000602082015250565b7f4552433732313a207472616e7366657220746f206e6f6e20455243373231526560008201527f63656976657220696d706c656d656e7465720000000000000000000000000000602082015250565b7f4552433732313a207472616e736665722066726f6d20696e636f72726563742060008201527f6f776e6572000000000000000000000000000000000000000000000000000000602082015250565b7f4552433732313a20746f6b656e20616c7265616479206d696e74656400000000600082015250565b7f4552433732313a207472616e7366657220746f20746865207a65726f2061646460008201527f7265737300000000000000000000000000000000000000000000000000000000602082015250565b7f4552433732313a20617070726f766520746f2063616c6c657200000000000000600082015250565b7f4f6e6c79206f776e65722063616e20757064617465206c697374696e6720707260008201527f6963650000000000000000000000000000000000000000000000000000000000602082015250565b7f4552433732313a2061646472657373207a65726f206973206e6f74206120766160008201527f6c6964206f776e65720000000000000000000000000000000000000000000000602082015250565b7f45524337323155524953746f726167653a2055524920736574206f66206e6f6e60008201527f6578697374656e7420746f6b656e000000000000000000000000000000000000602082015250565b7f506c65617365207375626d6974207468652061736b696e67207072696365206960008201527f6e206f7264657220746f20636f6d706c65746520746865207075726368617365602082015250565b7f4552433732313a206d696e7420746f20746865207a65726f2061646472657373600082015250565b7f486f706566756c6c792073656e64696e672074686520636f727265637420707260008201527f6963650000000000000000000000000000000000000000000000000000000000602082015250565b7f4552433732313a20696e76616c696420746f6b656e2049440000000000000000600082015250565b7f4552433732313a20617070726f76616c20746f2063757272656e74206f776e6560008201527f7200000000000000000000000000000000000000000000000000000000000000602082015250565b7f4552433732313a20617070726f76652063616c6c6572206973206e6f7420746f60008201527f6b656e206f776e6572206f7220617070726f76656420666f7220616c6c000000602082015250565b7f4d616b652073757265207468652070726963652069736e2774206e656761746960008201527f7665000000000000000000000000000000000000000000000000000000000000602082015250565b613ee381613870565b8114613eee57600080fd5b50565b613efa81613894565b8114613f0557600080fd5b50565b613f11816138a0565b8114613f1c57600080fd5b50565b613f28816138ec565b8114613f3357600080fd5b5056fea2646970667358221220035225f2adbad64bba7d1cdf3431a033538ed9f42e9fc4469ce8fb5bd22d39ef64736f6c63430008040033",
  "linkReferences": {},
  "deployedLinkReferences": {}
}