{
  "_format": "hh-sol-artifact-1",
  "contractName": "ProductPurchase",
  "sourceName": "contracts/CreateTransaction.sol",
  "abi": [
    {
      "inputs": [],
      "stateMutability": "nonpayable",
      "type": "constructor"
    },
    {
      "anonymous": false,
      "inputs": [
        {
          "indexed": true,
          "internalType": "address",
          "name": "owner",
          "type": "address"
        },
        {
          "indexed": true,
          "internalType": "address",
          "name": "approved",
          "type": "address"
        },
        {
          "indexed": true,
          "internalType": "uint256",
          "name": "tokenId",
          "type": "uint256"
        }
      ],
      "name": "Approval",
      "type": "event"
    },
    {
      "anonymous": false,
      "inputs": [
        {
          "indexed": true,
          "internalType": "address",
          "name": "owner",
          "type": "address"
        },
        {
          "indexed": true,
          "internalType": "address",
          "name": "operator",
          "type": "address"
        },
        {
          "indexed": false,
          "internalType": "bool",
          "name": "approved",
          "type": "bool"
        }
      ],
      "name": "ApprovalForAll",
      "type": "event"
    },
    {
      "anonymous": false,
      "inputs": [
        {
          "indexed": true,
          "internalType": "address",
          "name": "previousOwner",
          "type": "address"
        },
        {
          "indexed": true,
          "internalType": "address",
          "name": "newOwner",
          "type": "address"
        }
      ],
      "name": "OwnershipTransferred",
      "type": "event"
    },
    {
      "anonymous": false,
      "inputs": [
        {
          "indexed": false,
          "internalType": "uint256",
          "name": "productId",
          "type": "uint256"
        },
        {
          "indexed": false,
          "internalType": "address",
          "name": "buyer",
          "type": "address"
        },
        {
          "indexed": false,
          "internalType": "uint256",
          "name": "amountPaid",
          "type": "uint256"
        }
      ],
      "name": "ProductPurchased",
      "type": "event"
    },
    {
      "anonymous": false,
      "inputs": [
        {
          "indexed": true,
          "internalType": "address",
          "name": "from",
          "type": "address"
        },
        {
          "indexed": true,
          "internalType": "address",
          "name": "to",
          "type": "address"
        },
        {
          "indexed": true,
          "internalType": "uint256",
          "name": "tokenId",
          "type": "uint256"
        }
      ],
      "name": "Transfer",
      "type": "event"
    },
    {
      "stateMutability": "payable",
      "type": "fallback"
    },
    {
      "inputs": [
        {
          "internalType": "uint256",
          "name": "productId",
          "type": "uint256"
        },
        {
          "internalType": "string",
          "name": "_name",
          "type": "string"
        },
        {
          "internalType": "string",
          "name": "_author",
          "type": "string"
        },
        {
          "internalType": "uint256",
          "name": "_price",
          "type": "uint256"
        },
        {
          "internalType": "address payable",
          "name": "_seller",
          "type": "address"
        }
      ],
      "name": "addProduct",
      "outputs": [],
      "stateMutability": "nonpayable",
      "type": "function"
    },
    {
      "inputs": [
        {
          "internalType": "address",
          "name": "to",
          "type": "address"
        },
        {
          "internalType": "uint256",
          "name": "tokenId",
          "type": "uint256"
        }
      ],
      "name": "approve",
      "outputs": [],
      "stateMutability": "nonpayable",
      "type": "function"
    },
    {
      "inputs": [
        {
          "internalType": "address",
          "name": "owner",
          "type": "address"
        }
      ],
      "name": "balanceOf",
      "outputs": [
        {
          "internalType": "uint256",
          "name": "",
          "type": "uint256"
        }
      ],
      "stateMutability": "view",
      "type": "function"
    },
    {
      "inputs": [
        {
          "internalType": "uint256",
          "name": "tokenId",
          "type": "uint256"
        }
      ],
      "name": "getApproved",
      "outputs": [
        {
          "internalType": "address",
          "name": "",
          "type": "address"
        }
      ],
      "stateMutability": "view",
      "type": "function"
    },
    {
      "inputs": [
        {
          "internalType": "uint256",
          "name": "productId",
          "type": "uint256"
        }
      ],
      "name": "getProduct",
      "outputs": [
        {
          "internalType": "string",
          "name": "",
          "type": "string"
        },
        {
          "internalType": "string",
          "name": "",
          "type": "string"
        },
        {
          "internalType": "uint256",
          "name": "",
          "type": "uint256"
        },
        {
          "internalType": "address payable",
          "name": "",
          "type": "address"
        }
      ],
      "stateMutability": "view",
      "type": "function"
    },
    {
      "inputs": [
        {
          "internalType": "address",
          "name": "owner",
          "type": "address"
        },
        {
          "internalType": "address",
          "name": "operator",
          "type": "address"
        }
      ],
      "name": "isApprovedForAll",
      "outputs": [
        {
          "internalType": "bool",
          "name": "",
          "type": "bool"
        }
      ],
      "stateMutability": "view",
      "type": "function"
    },
    {
      "inputs": [],
      "name": "name",
      "outputs": [
        {
          "internalType": "string",
          "name": "",
          "type": "string"
        }
      ],
      "stateMutability": "view",
      "type": "function"
    },
    {
      "inputs": [],
      "name": "owner",
      "outputs": [
        {
          "internalType": "address",
          "name": "",
          "type": "address"
        }
      ],
      "stateMutability": "view",
      "type": "function"
    },
    {
      "inputs": [
        {
          "internalType": "uint256",
          "name": "tokenId",
          "type": "uint256"
        }
      ],
      "name": "ownerOf",
      "outputs": [
        {
          "internalType": "address",
          "name": "",
          "type": "address"
        }
      ],
      "stateMutability": "view",
      "type": "function"
    },
    {
      "inputs": [
        {
          "internalType": "uint256",
          "name": "",
          "type": "uint256"
        }
      ],
      "name": "products",
      "outputs": [
        {
          "internalType": "string",
          "name": "name",
          "type": "string"
        },
        {
          "internalType": "string",
          "name": "author",
          "type": "string"
        },
        {
          "internalType": "uint256",
          "name": "price",
          "type": "uint256"
        },
        {
          "internalType": "address payable",
          "name": "wallet",
          "type": "address"
        }
      ],
      "stateMutability": "view",
      "type": "function"
    },
    {
      "inputs": [
        {
          "internalType": "uint256",
          "name": "productId",
          "type": "uint256"
        }
      ],
      "name": "purchaseProduct",
      "outputs": [],
      "stateMutability": "payable",
      "type": "function"
    },
    {
      "inputs": [],
      "name": "renounceOwnership",
      "outputs": [],
      "stateMutability": "nonpayable",
      "type": "function"
    },
    {
      "inputs": [
        {
          "internalType": "address",
          "name": "from",
          "type": "address"
        },
        {
          "internalType": "address",
          "name": "to",
          "type": "address"
        },
        {
          "internalType": "uint256",
          "name": "tokenId",
          "type": "uint256"
        }
      ],
      "name": "safeTransferFrom",
      "outputs": [],
      "stateMutability": "nonpayable",
      "type": "function"
    },
    {
      "inputs": [
        {
          "internalType": "address",
          "name": "from",
          "type": "address"
        },
        {
          "internalType": "address",
          "name": "to",
          "type": "address"
        },
        {
          "internalType": "uint256",
          "name": "tokenId",
          "type": "uint256"
        },
        {
          "internalType": "bytes",
          "name": "data",
          "type": "bytes"
        }
      ],
      "name": "safeTransferFrom",
      "outputs": [],
      "stateMutability": "nonpayable",
      "type": "function"
    },
    {
      "inputs": [
        {
          "internalType": "address",
          "name": "operator",
          "type": "address"
        },
        {
          "internalType": "bool",
          "name": "approved",
          "type": "bool"
        }
      ],
      "name": "setApprovalForAll",
      "outputs": [],
      "stateMutability": "nonpayable",
      "type": "function"
    },
    {
      "inputs": [
        {
          "internalType": "bytes4",
          "name": "interfaceId",
          "type": "bytes4"
        }
      ],
      "name": "supportsInterface",
      "outputs": [
        {
          "internalType": "bool",
          "name": "",
          "type": "bool"
        }
      ],
      "stateMutability": "view",
      "type": "function"
    },
    {
      "inputs": [],
      "name": "symbol",
      "outputs": [
        {
          "internalType": "string",
          "name": "",
          "type": "string"
        }
      ],
      "stateMutability": "view",
      "type": "function"
    },
    {
      "inputs": [
        {
          "internalType": "uint256",
          "name": "index",
          "type": "uint256"
        }
      ],
      "name": "tokenByIndex",
      "outputs": [
        {
          "internalType": "uint256",
          "name": "",
          "type": "uint256"
        }
      ],
      "stateMutability": "view",
      "type": "function"
    },
    {
      "inputs": [
        {
          "internalType": "address",
          "name": "owner",
          "type": "address"
        },
        {
          "internalType": "uint256",
          "name": "index",
          "type": "uint256"
        }
      ],
      "name": "tokenOfOwnerByIndex",
      "outputs": [
        {
          "internalType": "uint256",
          "name": "",
          "type": "uint256"
        }
      ],
      "stateMutability": "view",
      "type": "function"
    },
    {
      "inputs": [
        {
          "internalType": "uint256",
          "name": "tokenId",
          "type": "uint256"
        }
      ],
      "name": "tokenURI",
      "outputs": [
        {
          "internalType": "string",
          "name": "",
          "type": "string"
        }
      ],
      "stateMutability": "view",
      "type": "function"
    },
    {
      "inputs": [],
      "name": "totalSupply",
      "outputs": [
        {
          "internalType": "uint256",
          "name": "",
          "type": "uint256"
        }
      ],
      "stateMutability": "view",
      "type": "function"
    },
    {
      "inputs": [
        {
          "internalType": "address",
          "name": "from",
          "type": "address"
        },
        {
          "internalType": "address",
          "name": "to",
          "type": "address"
        },
        {
          "internalType": "uint256",
          "name": "tokenId",
          "type": "uint256"
        }
      ],
      "name": "transferFrom",
      "outputs": [],
      "stateMutability": "nonpayable",
      "type": "function"
    },
    {
      "inputs": [
        {
          "internalType": "address",
          "name": "newOwner",
          "type": "address"
        }
      ],
      "name": "transferOwnership",
      "outputs": [],
      "stateMutability": "nonpayable",
      "type": "function"
    },
    {
      "stateMutability": "payable",
      "type": "receive"
    }
  ],
  "bytecode": "0x60806040523480156200001157600080fd5b506040518060400160405280600f81526020017f50726f64756374507572636861736500000000000000000000000000000000008152506040518060400160405280600281526020017f505000000000000000000000000000000000000000000000000000000000000081525081600090816200008f919062000412565b508060019081620000a1919062000412565b505050620000c4620000b8620000ca60201b60201c565b620000d260201b60201c565b620004f9565b600033905090565b6000600a60009054906101000a900473ffffffffffffffffffffffffffffffffffffffff16905081600a60006101000a81548173ffffffffffffffffffffffffffffffffffffffff021916908373ffffffffffffffffffffffffffffffffffffffff1602179055508173ffffffffffffffffffffffffffffffffffffffff168173ffffffffffffffffffffffffffffffffffffffff167f8be0079c531659141344cd1fd0a4f28419497f9722a3daafe3b4186f6b6457e060405160405180910390a35050565b600081519050919050565b7f4e487b7100000000000000000000000000000000000000000000000000000000600052604160045260246000fd5b7f4e487b7100000000000000000000000000000000000000000000000000000000600052602260045260246000fd5b600060028204905060018216806200021a57607f821691505b60208210810362000230576200022f620001d2565b5b50919050565b60008190508160005260206000209050919050565b60006020601f8301049050919050565b600082821b905092915050565b6000600883026200029a7fffffffffffffffffffffffffffffffffffffffffffffffffffffffffffffffff826200025b565b620002a686836200025b565b95508019841693508086168417925050509392505050565b6000819050919050565b6000819050919050565b6000620002f3620002ed620002e784620002be565b620002c8565b620002be565b9050919050565b6000819050919050565b6200030f83620002d2565b620003276200031e82620002fa565b84845462000268565b825550505050565b600090565b6200033e6200032f565b6200034b81848462000304565b505050565b5b8181101562000373576200036760008262000334565b60018101905062000351565b5050565b601f821115620003c2576200038c8162000236565b62000397846200024b565b81016020851015620003a7578190505b620003bf620003b6856200024b565b83018262000350565b50505b505050565b600082821c905092915050565b6000620003e760001984600802620003c7565b1980831691505092915050565b6000620004028383620003d4565b9150826002028217905092915050565b6200041d8262000198565b67ffffffffffffffff811115620004395762000438620001a3565b5b62000445825462000201565b6200045282828562000377565b600060209050601f8311600181146200048a576000841562000475578287015190505b620004818582620003f4565b865550620004f1565b601f1984166200049a8662000236565b60005b82811015620004c4578489015182556001820191506020850194506020810190506200049d565b86831015620004e45784890151620004e0601f891682620003d4565b8355505b6001600288020188555050505b505050505050565b613c5d80620005096000396000f3fe6080604052600436106101445760003560e01c806366c399f4116100b6578063a22cb4651161006f578063a22cb4651461047e578063b88d4fde146104a7578063b9db15b4146104d0578063c87b56dd14610510578063e985e9c51461054d578063f2fde38b1461058a5761014b565b806366c399f41461036b57806370a0823114610394578063715018a6146103d15780637acc0b20146103e85780638da5cb5b1461042857806395d89b41146104535761014b565b806323b872dd1161010857806323b872dd146102465780632f745c591461026f57806338e76a03146102ac57806342842e0e146102c85780634f6ccce7146102f15780636352211e1461032e5761014b565b806301ffc9a71461014d57806306fdde031461018a578063081812fc146101b5578063095ea7b3146101f257806318160ddd1461021b5761014b565b3661014b57005b005b34801561015957600080fd5b50610174600480360381019061016f91906126cf565b6105b3565b6040516101819190612717565b60405180910390f35b34801561019657600080fd5b5061019f61062d565b6040516101ac91906127c2565b60405180910390f35b3480156101c157600080fd5b506101dc60048036038101906101d7919061281a565b6106bf565b6040516101e99190612888565b60405180910390f35b3480156101fe57600080fd5b50610219600480360381019061021491906128cf565b610705565b005b34801561022757600080fd5b5061023061081c565b60405161023d919061291e565b60405180910390f35b34801561025257600080fd5b5061026d60048036038101906102689190612939565b610829565b005b34801561027b57600080fd5b50610296600480360381019061029191906128cf565b610889565b6040516102a3919061291e565b60405180910390f35b6102c660048036038101906102c1919061281a565b61092e565b005b3480156102d457600080fd5b506102ef60048036038101906102ea9190612939565b610a3f565b005b3480156102fd57600080fd5b506103186004803603810190610313919061281a565b610a5f565b604051610325919061291e565b60405180910390f35b34801561033a57600080fd5b506103556004803603810190610350919061281a565b610ad0565b6040516103629190612888565b60405180910390f35b34801561037757600080fd5b50610392600480360381019061038d9190612aff565b610b56565b005b3480156103a057600080fd5b506103bb60048036038101906103b69190612bb2565b610c2f565b6040516103c8919061291e565b60405180910390f35b3480156103dd57600080fd5b506103e6610ce6565b005b3480156103f457600080fd5b5061040f600480360381019061040a919061281a565b610cfa565b60405161041f9493929190612bee565b60405180910390f35b34801561043457600080fd5b5061043d610e5a565b60405161044a9190612888565b60405180910390f35b34801561045f57600080fd5b50610468610e84565b60405161047591906127c2565b60405180910390f35b34801561048a57600080fd5b506104a560048036038101906104a09190612c6d565b610f16565b005b3480156104b357600080fd5b506104ce60048036038101906104c99190612d4e565b610f2c565b005b3480156104dc57600080fd5b506104f760048036038101906104f2919061281a565b610f8e565b6040516105079493929190612bee565b60405180910390f35b34801561051c57600080fd5b506105376004803603810190610532919061281a565b611105565b60405161054491906127c2565b60405180910390f35b34801561055957600080fd5b50610574600480360381019061056f9190612dd1565b61116d565b6040516105819190612717565b60405180910390f35b34801561059657600080fd5b506105b160048036038101906105ac9190612bb2565b611201565b005b60007f780e9d63000000000000000000000000000000000000000000000000000000007bffffffffffffffffffffffffffffffffffffffffffffffffffffffff1916827bffffffffffffffffffffffffffffffffffffffffffffffffffffffff19161480610626575061062582611284565b5b9050919050565b60606000805461063c90612e40565b80601f016020809104026020016040519081016040528092919081815260200182805461066890612e40565b80156106b55780601f1061068a576101008083540402835291602001916106b5565b820191906000526020600020905b81548152906001019060200180831161069857829003601f168201915b5050505050905090565b60006106ca82611366565b6004600083815260200190815260200160002060009054906101000a900473ffffffffffffffffffffffffffffffffffffffff169050919050565b600061071082610ad0565b90508073ffffffffffffffffffffffffffffffffffffffff168373ffffffffffffffffffffffffffffffffffffffff1603610780576040517f08c379a000000000000000000000000000000000000000000000000000000000815260040161077790612ee3565b60405180910390fd5b8073ffffffffffffffffffffffffffffffffffffffff1661079f6113b1565b73ffffffffffffffffffffffffffffffffffffffff1614806107ce57506107cd816107c86113b1565b61116d565b5b61080d576040517f08c379a000000000000000000000000000000000000000000000000000000000815260040161080490612f75565b60405180910390fd5b61081783836113b9565b505050565b6000600880549050905090565b61083a6108346113b1565b82611472565b610879576040517f08c379a000000000000000000000000000000000000000000000000000000000815260040161087090613007565b60405180910390fd5b610884838383611507565b505050565b600061089483610c2f565b82106108d5576040517f08c379a00000000000000000000000000000000000000000000000000000000081526004016108cc90613099565b60405180910390fd5b600660008473ffffffffffffffffffffffffffffffffffffffff1673ffffffffffffffffffffffffffffffffffffffff168152602001908152602001600020600083815260200190815260200160002054905092915050565b6000600b600083815260200190815260200160002090508060020154341461098b576040517f08c379a000000000000000000000000000000000000000000000000000000000815260040161098290613105565b60405180910390fd5b8060030160009054906101000a900473ffffffffffffffffffffffffffffffffffffffff1673ffffffffffffffffffffffffffffffffffffffff166108fc349081150290604051600060405180830381858888f193505050501580156109f5573d6000803e3d6000fd5b50610a003383611800565b7fa530f889d7f1bd9a73028e48944ca013ab2c6624a31e3fa26f923f4bb719abd5823334604051610a3393929190613125565b60405180910390a15050565b610a5a83838360405180602001604052806000815250610f2c565b505050565b6000610a6961081c565b8210610aaa576040517f08c379a0000000000000000000000000000000000000000000000000000000008152600401610aa1906131ce565b60405180910390fd5b60088281548110610abe57610abd6131ee565b5b90600052602060002001549050919050565b600080610adc83611a1d565b9050600073ffffffffffffffffffffffffffffffffffffffff168173ffffffffffffffffffffffffffffffffffffffff1603610b4d576040517f08c379a0000000000000000000000000000000000000000000000000000000008152600401610b4490613269565b60405180910390fd5b80915050919050565b610b5e611a5a565b60405180608001604052808581526020018481526020018381526020018273ffffffffffffffffffffffffffffffffffffffff16815250600b60008781526020019081526020016000206000820151816000019081610bbd9190613435565b506020820151816001019081610bd39190613435565b506040820151816002015560608201518160030160006101000a81548173ffffffffffffffffffffffffffffffffffffffff021916908373ffffffffffffffffffffffffffffffffffffffff1602179055509050505050505050565b60008073ffffffffffffffffffffffffffffffffffffffff168273ffffffffffffffffffffffffffffffffffffffff1603610c9f576040517f08c379a0000000000000000000000000000000000000000000000000000000008152600401610c9690613579565b60405180910390fd5b600360008373ffffffffffffffffffffffffffffffffffffffff1673ffffffffffffffffffffffffffffffffffffffff168152602001908152602001600020549050919050565b610cee611a5a565b610cf86000611ad8565b565b600b602052806000526040600020600091509050806000018054610d1d90612e40565b80601f0160208091040260200160405190810160405280929190818152602001828054610d4990612e40565b8015610d965780601f10610d6b57610100808354040283529160200191610d96565b820191906000526020600020905b815481529060010190602001808311610d7957829003601f168201915b505050505090806001018054610dab90612e40565b80601f0160208091040260200160405190810160405280929190818152602001828054610dd790612e40565b8015610e245780601f10610df957610100808354040283529160200191610e24565b820191906000526020600020905b815481529060010190602001808311610e0757829003601f168201915b5050505050908060020154908060030160009054906101000a900473ffffffffffffffffffffffffffffffffffffffff16905084565b6000600a60009054906101000a900473ffffffffffffffffffffffffffffffffffffffff16905090565b606060018054610e9390612e40565b80601f0160208091040260200160405190810160405280929190818152602001828054610ebf90612e40565b8015610f0c5780601f10610ee157610100808354040283529160200191610f0c565b820191906000526020600020905b815481529060010190602001808311610eef57829003601f168201915b5050505050905090565b610f28610f216113b1565b8383611b9e565b5050565b610f3d610f376113b1565b83611472565b610f7c576040517f08c379a0000000000000000000000000000000000000000000000000000000008152600401610f7390613007565b60405180910390fd5b610f8884848484611d0a565b50505050565b6060806000806000600b60008781526020019081526020016000209050806000018160010182600201548360030160009054906101000a900473ffffffffffffffffffffffffffffffffffffffff16838054610fe990612e40565b80601f016020809104026020016040519081016040528092919081815260200182805461101590612e40565b80156110625780601f1061103757610100808354040283529160200191611062565b820191906000526020600020905b81548152906001019060200180831161104557829003601f168201915b5050505050935082805461107590612e40565b80601f01602080910402602001604051908101604052809291908181526020018280546110a190612e40565b80156110ee5780601f106110c3576101008083540402835291602001916110ee565b820191906000526020600020905b8154815290600101906020018083116110d157829003601f168201915b505050505092509450945094509450509193509193565b606061111082611366565b600061111a611d66565b9050600081511161113a5760405180602001604052806000815250611165565b8061114484611d7d565b6040516020016111559291906135d5565b6040516020818303038152906040525b915050919050565b6000600560008473ffffffffffffffffffffffffffffffffffffffff1673ffffffffffffffffffffffffffffffffffffffff16815260200190815260200160002060008373ffffffffffffffffffffffffffffffffffffffff1673ffffffffffffffffffffffffffffffffffffffff16815260200190815260200160002060009054906101000a900460ff16905092915050565b611209611a5a565b600073ffffffffffffffffffffffffffffffffffffffff168173ffffffffffffffffffffffffffffffffffffffff1603611278576040517f08c379a000000000000000000000000000000000000000000000000000000000815260040161126f9061366b565b60405180910390fd5b61128181611ad8565b50565b60007f80ac58cd000000000000000000000000000000000000000000000000000000007bffffffffffffffffffffffffffffffffffffffffffffffffffffffff1916827bffffffffffffffffffffffffffffffffffffffffffffffffffffffff1916148061134f57507f5b5e139f000000000000000000000000000000000000000000000000000000007bffffffffffffffffffffffffffffffffffffffffffffffffffffffff1916827bffffffffffffffffffffffffffffffffffffffffffffffffffffffff1916145b8061135f575061135e82611e4b565b5b9050919050565b61136f81611eb5565b6113ae576040517f08c379a00000000000000000000000000000000000000000000000000000000081526004016113a590613269565b60405180910390fd5b50565b600033905090565b816004600083815260200190815260200160002060006101000a81548173ffffffffffffffffffffffffffffffffffffffff021916908373ffffffffffffffffffffffffffffffffffffffff160217905550808273ffffffffffffffffffffffffffffffffffffffff1661142c83610ad0565b73ffffffffffffffffffffffffffffffffffffffff167f8c5be1e5ebec7d5bd14f71427d1e84f3dd0314c0f7b2291e5b200ac8c7c3b92560405160405180910390a45050565b60008061147e83610ad0565b90508073ffffffffffffffffffffffffffffffffffffffff168473ffffffffffffffffffffffffffffffffffffffff1614806114c057506114bf818561116d565b5b806114fe57508373ffffffffffffffffffffffffffffffffffffffff166114e6846106bf565b73ffffffffffffffffffffffffffffffffffffffff16145b91505092915050565b8273ffffffffffffffffffffffffffffffffffffffff1661152782610ad0565b73ffffffffffffffffffffffffffffffffffffffff161461157d576040517f08c379a0000000000000000000000000000000000000000000000000000000008152600401611574906136fd565b60405180910390fd5b600073ffffffffffffffffffffffffffffffffffffffff168273ffffffffffffffffffffffffffffffffffffffff16036115ec576040517f08c379a00000000000000000000000000000000000000000000000000000000081526004016115e39061378f565b60405180910390fd5b6115f98383836001611ef6565b8273ffffffffffffffffffffffffffffffffffffffff1661161982610ad0565b73ffffffffffffffffffffffffffffffffffffffff161461166f576040517f08c379a0000000000000000000000000000000000000000000000000000000008152600401611666906136fd565b60405180910390fd5b6004600082815260200190815260200160002060006101000a81549073ffffffffffffffffffffffffffffffffffffffff02191690556001600360008573ffffffffffffffffffffffffffffffffffffffff1673ffffffffffffffffffffffffffffffffffffffff168152602001908152602001600020600082825403925050819055506001600360008473ffffffffffffffffffffffffffffffffffffffff1673ffffffffffffffffffffffffffffffffffffffff16815260200190815260200160002060008282540192505081905550816002600083815260200190815260200160002060006101000a81548173ffffffffffffffffffffffffffffffffffffffff021916908373ffffffffffffffffffffffffffffffffffffffff160217905550808273ffffffffffffffffffffffffffffffffffffffff168473ffffffffffffffffffffffffffffffffffffffff167fddf252ad1be2c89b69c2b068fc378daa952ba7f163c4a11628f55a4df523b3ef60405160405180910390a46117fb8383836001612054565b505050565b600073ffffffffffffffffffffffffffffffffffffffff168273ffffffffffffffffffffffffffffffffffffffff160361186f576040517f08c379a0000000000000000000000000000000000000000000000000000000008152600401611866906137fb565b60405180910390fd5b61187881611eb5565b156118b8576040517f08c379a00000000000000000000000000000000000000000000000000000000081526004016118af90613867565b60405180910390fd5b6118c6600083836001611ef6565b6118cf81611eb5565b1561190f576040517f08c379a000000000000000000000000000000000000000000000000000000000815260040161190690613867565b60405180910390fd5b6001600360008473ffffffffffffffffffffffffffffffffffffffff1673ffffffffffffffffffffffffffffffffffffffff16815260200190815260200160002060008282540192505081905550816002600083815260200190815260200160002060006101000a81548173ffffffffffffffffffffffffffffffffffffffff021916908373ffffffffffffffffffffffffffffffffffffffff160217905550808273ffffffffffffffffffffffffffffffffffffffff16600073ffffffffffffffffffffffffffffffffffffffff167fddf252ad1be2c89b69c2b068fc378daa952ba7f163c4a11628f55a4df523b3ef60405160405180910390a4611a19600083836001612054565b5050565b60006002600083815260200190815260200160002060009054906101000a900473ffffffffffffffffffffffffffffffffffffffff169050919050565b611a626113b1565b73ffffffffffffffffffffffffffffffffffffffff16611a80610e5a565b73ffffffffffffffffffffffffffffffffffffffff1614611ad6576040517f08c379a0000000000000000000000000000000000000000000000000000000008152600401611acd906138d3565b60405180910390fd5b565b6000600a60009054906101000a900473ffffffffffffffffffffffffffffffffffffffff16905081600a60006101000a81548173ffffffffffffffffffffffffffffffffffffffff021916908373ffffffffffffffffffffffffffffffffffffffff1602179055508173ffffffffffffffffffffffffffffffffffffffff168173ffffffffffffffffffffffffffffffffffffffff167f8be0079c531659141344cd1fd0a4f28419497f9722a3daafe3b4186f6b6457e060405160405180910390a35050565b8173ffffffffffffffffffffffffffffffffffffffff168373ffffffffffffffffffffffffffffffffffffffff1603611c0c576040517f08c379a0000000000000000000000000000000000000000000000000000000008152600401611c039061393f565b60405180910390fd5b80600560008573ffffffffffffffffffffffffffffffffffffffff1673ffffffffffffffffffffffffffffffffffffffff16815260200190815260200160002060008473ffffffffffffffffffffffffffffffffffffffff1673ffffffffffffffffffffffffffffffffffffffff16815260200190815260200160002060006101000a81548160ff0219169083151502179055508173ffffffffffffffffffffffffffffffffffffffff168373ffffffffffffffffffffffffffffffffffffffff167f17307eab39ab6107e8899845ad3d59bd9653f200f220920489ca2b5937696c3183604051611cfd9190612717565b60405180910390a3505050565b611d15848484611507565b611d218484848461205a565b611d60576040517f08c379a0000000000000000000000000000000000000000000000000000000008152600401611d57906139d1565b60405180910390fd5b50505050565b606060405180602001604052806000815250905090565b606060006001611d8c846121e1565b01905060008167ffffffffffffffff811115611dab57611daa612996565b5b6040519080825280601f01601f191660200182016040528015611ddd5781602001600182028036833780820191505090505b509050600082602001820190505b600115611e40578080600190039150507f3031323334353637383961626364656600000000000000000000000000000000600a86061a8153600a8581611e3457611e336139f1565b5b04945060008503611deb575b819350505050919050565b60007f01ffc9a7000000000000000000000000000000000000000000000000000000007bffffffffffffffffffffffffffffffffffffffffffffffffffffffff1916827bffffffffffffffffffffffffffffffffffffffffffffffffffffffff1916149050919050565b60008073ffffffffffffffffffffffffffffffffffffffff16611ed783611a1d565b73ffffffffffffffffffffffffffffffffffffffff1614159050919050565b611f0284848484612334565b6001811115611f46576040517f08c379a0000000000000000000000000000000000000000000000000000000008152600401611f3d90613a92565b60405180910390fd5b6000829050600073ffffffffffffffffffffffffffffffffffffffff168573ffffffffffffffffffffffffffffffffffffffff1603611f8d57611f888161233a565b611fcc565b8373ffffffffffffffffffffffffffffffffffffffff168573ffffffffffffffffffffffffffffffffffffffff1614611fcb57611fca8582612383565b5b5b600073ffffffffffffffffffffffffffffffffffffffff168473ffffffffffffffffffffffffffffffffffffffff160361200e57612009816124f0565b61204d565b8473ffffffffffffffffffffffffffffffffffffffff168473ffffffffffffffffffffffffffffffffffffffff161461204c5761204b84826125c1565b5b5b5050505050565b50505050565b600061207b8473ffffffffffffffffffffffffffffffffffffffff16612640565b156121d4578373ffffffffffffffffffffffffffffffffffffffff1663150b7a026120a46113b1565b8786866040518563ffffffff1660e01b81526004016120c69493929190613b07565b6020604051808303816000875af192505050801561210257506040513d601f19601f820116820180604052508101906120ff9190613b68565b60015b612184573d8060008114612132576040519150601f19603f3d011682016040523d82523d6000602084013e612137565b606091505b50600081510361217c576040517f08c379a0000000000000000000000000000000000000000000000000000000008152600401612173906139d1565b60405180910390fd5b805181602001fd5b63150b7a0260e01b7bffffffffffffffffffffffffffffffffffffffffffffffffffffffff1916817bffffffffffffffffffffffffffffffffffffffffffffffffffffffff1916149150506121d9565b600190505b949350505050565b600080600090507a184f03e93ff9f4daa797ed6e38ed64bf6a1f010000000000000000831061223f577a184f03e93ff9f4daa797ed6e38ed64bf6a1f0100000000000000008381612235576122346139f1565b5b0492506040810190505b6d04ee2d6d415b85acef8100000000831061227c576d04ee2d6d415b85acef81000000008381612272576122716139f1565b5b0492506020810190505b662386f26fc1000083106122ab57662386f26fc1000083816122a1576122a06139f1565b5b0492506010810190505b6305f5e10083106122d4576305f5e10083816122ca576122c96139f1565b5b0492506008810190505b61271083106122f95761271083816122ef576122ee6139f1565b5b0492506004810190505b6064831061231c5760648381612312576123116139f1565b5b0492506002810190505b600a831061232b576001810190505b80915050919050565b50505050565b6008805490506009600083815260200190815260200160002081905550600881908060018154018082558091505060019003906000526020600020016000909190919091505550565b6000600161239084610c2f565b61239a9190613bc4565b905060006007600084815260200190815260200160002054905081811461247f576000600660008673ffffffffffffffffffffffffffffffffffffffff1673ffffffffffffffffffffffffffffffffffffffff168152602001908152602001600020600084815260200190815260200160002054905080600660008773ffffffffffffffffffffffffffffffffffffffff1673ffffffffffffffffffffffffffffffffffffffff168152602001908152602001600020600084815260200190815260200160002081905550816007600083815260200190815260200160002081905550505b6007600084815260200190815260200160002060009055600660008573ffffffffffffffffffffffffffffffffffffffff1673ffffffffffffffffffffffffffffffffffffffff16815260200190815260200160002060008381526020019081526020016000206000905550505050565b600060016008805490506125049190613bc4565b9050600060096000848152602001908152602001600020549050600060088381548110612534576125336131ee565b5b906000526020600020015490508060088381548110612556576125556131ee565b5b9060005260206000200181905550816009600083815260200190815260200160002081905550600960008581526020019081526020016000206000905560088054806125a5576125a4613bf8565b5b6001900381819060005260206000200160009055905550505050565b60006125cc83610c2f565b905081600660008573ffffffffffffffffffffffffffffffffffffffff1673ffffffffffffffffffffffffffffffffffffffff168152602001908152602001600020600083815260200190815260200160002081905550806007600084815260200190815260200160002081905550505050565b6000808273ffffffffffffffffffffffffffffffffffffffff163b119050919050565b6000604051905090565b600080fd5b600080fd5b60007fffffffff0000000000000000000000000000000000000000000000000000000082169050919050565b6126ac81612677565b81146126b757600080fd5b50565b6000813590506126c9816126a3565b92915050565b6000602082840312156126e5576126e461266d565b5b60006126f3848285016126ba565b91505092915050565b60008115159050919050565b612711816126fc565b82525050565b600060208201905061272c6000830184612708565b92915050565b600081519050919050565b600082825260208201905092915050565b60005b8381101561276c578082015181840152602081019050612751565b60008484015250505050565b6000601f19601f8301169050919050565b600061279482612732565b61279e818561273d565b93506127ae81856020860161274e565b6127b781612778565b840191505092915050565b600060208201905081810360008301526127dc8184612789565b905092915050565b6000819050919050565b6127f7816127e4565b811461280257600080fd5b50565b600081359050612814816127ee565b92915050565b6000602082840312156128305761282f61266d565b5b600061283e84828501612805565b91505092915050565b600073ffffffffffffffffffffffffffffffffffffffff82169050919050565b600061287282612847565b9050919050565b61288281612867565b82525050565b600060208201905061289d6000830184612879565b92915050565b6128ac81612867565b81146128b757600080fd5b50565b6000813590506128c9816128a3565b92915050565b600080604083850312156128e6576128e561266d565b5b60006128f4858286016128ba565b925050602061290585828601612805565b9150509250929050565b612918816127e4565b82525050565b6000602082019050612933600083018461290f565b92915050565b6000806000606084860312156129525761295161266d565b5b6000612960868287016128ba565b9350506020612971868287016128ba565b925050604061298286828701612805565b9150509250925092565b600080fd5b600080fd5b7f4e487b7100000000000000000000000000000000000000000000000000000000600052604160045260246000fd5b6129ce82612778565b810181811067ffffffffffffffff821117156129ed576129ec612996565b5b80604052505050565b6000612a00612663565b9050612a0c82826129c5565b919050565b600067ffffffffffffffff821115612a2c57612a2b612996565b5b612a3582612778565b9050602081019050919050565b82818337600083830152505050565b6000612a64612a5f84612a11565b6129f6565b905082815260208101848484011115612a8057612a7f612991565b5b612a8b848285612a42565b509392505050565b600082601f830112612aa857612aa761298c565b5b8135612ab8848260208601612a51565b91505092915050565b6000612acc82612847565b9050919050565b612adc81612ac1565b8114612ae757600080fd5b50565b600081359050612af981612ad3565b92915050565b600080600080600060a08688031215612b1b57612b1a61266d565b5b6000612b2988828901612805565b955050602086013567ffffffffffffffff811115612b4a57612b49612672565b5b612b5688828901612a93565b945050604086013567ffffffffffffffff811115612b7757612b76612672565b5b612b8388828901612a93565b9350506060612b9488828901612805565b9250506080612ba588828901612aea565b9150509295509295909350565b600060208284031215612bc857612bc761266d565b5b6000612bd6848285016128ba565b91505092915050565b612be881612ac1565b82525050565b60006080820190508181036000830152612c088187612789565b90508181036020830152612c1c8186612789565b9050612c2b604083018561290f565b612c386060830184612bdf565b95945050505050565b612c4a816126fc565b8114612c5557600080fd5b50565b600081359050612c6781612c41565b92915050565b60008060408385031215612c8457612c8361266d565b5b6000612c92858286016128ba565b9250506020612ca385828601612c58565b9150509250929050565b600067ffffffffffffffff821115612cc857612cc7612996565b5b612cd182612778565b9050602081019050919050565b6000612cf1612cec84612cad565b6129f6565b905082815260208101848484011115612d0d57612d0c612991565b5b612d18848285612a42565b509392505050565b600082601f830112612d3557612d3461298c565b5b8135612d45848260208601612cde565b91505092915050565b60008060008060808587031215612d6857612d6761266d565b5b6000612d76878288016128ba565b9450506020612d87878288016128ba565b9350506040612d9887828801612805565b925050606085013567ffffffffffffffff811115612db957612db8612672565b5b612dc587828801612d20565b91505092959194509250565b60008060408385031215612de857612de761266d565b5b6000612df6858286016128ba565b9250506020612e07858286016128ba565b9150509250929050565b7f4e487b7100000000000000000000000000000000000000000000000000000000600052602260045260246000fd5b60006002820490506001821680612e5857607f821691505b602082108103612e6b57612e6a612e11565b5b50919050565b7f4552433732313a20617070726f76616c20746f2063757272656e74206f776e6560008201527f7200000000000000000000000000000000000000000000000000000000000000602082015250565b6000612ecd60218361273d565b9150612ed882612e71565b604082019050919050565b60006020820190508181036000830152612efc81612ec0565b9050919050565b7f4552433732313a20617070726f76652063616c6c6572206973206e6f7420746f60008201527f6b656e206f776e6572206f7220617070726f76656420666f7220616c6c000000602082015250565b6000612f5f603d8361273d565b9150612f6a82612f03565b604082019050919050565b60006020820190508181036000830152612f8e81612f52565b9050919050565b7f4552433732313a2063616c6c6572206973206e6f7420746f6b656e206f776e6560008201527f72206f7220617070726f76656400000000000000000000000000000000000000602082015250565b6000612ff1602d8361273d565b9150612ffc82612f95565b604082019050919050565b6000602082019050818103600083015261302081612fe4565b9050919050565b7f455243373231456e756d657261626c653a206f776e657220696e646578206f7560008201527f74206f6620626f756e6473000000000000000000000000000000000000000000602082015250565b6000613083602b8361273d565b915061308e82613027565b604082019050919050565b600060208201905081810360008301526130b281613076565b9050919050565b7f496e73756666696369656e742066756e64732073656e74000000000000000000600082015250565b60006130ef60178361273d565b91506130fa826130b9565b602082019050919050565b6000602082019050818103600083015261311e816130e2565b9050919050565b600060608201905061313a600083018661290f565b6131476020830185612879565b613154604083018461290f565b949350505050565b7f455243373231456e756d657261626c653a20676c6f62616c20696e646578206f60008201527f7574206f6620626f756e64730000000000000000000000000000000000000000602082015250565b60006131b8602c8361273d565b91506131c38261315c565b604082019050919050565b600060208201905081810360008301526131e7816131ab565b9050919050565b7f4e487b7100000000000000000000000000000000000000000000000000000000600052603260045260246000fd5b7f4552433732313a20696e76616c696420746f6b656e2049440000000000000000600082015250565b600061325360188361273d565b915061325e8261321d565b602082019050919050565b6000602082019050818103600083015261328281613246565b9050919050565b60008190508160005260206000209050919050565b60006020601f8301049050919050565b600082821b905092915050565b6000600883026132eb7fffffffffffffffffffffffffffffffffffffffffffffffffffffffffffffffff826132ae565b6132f586836132ae565b95508019841693508086168417925050509392505050565b6000819050919050565b600061333261332d613328846127e4565b61330d565b6127e4565b9050919050565b6000819050919050565b61334c83613317565b61336061335882613339565b8484546132bb565b825550505050565b600090565b613375613368565b613380818484613343565b505050565b5b818110156133a45761339960008261336d565b600181019050613386565b5050565b601f8211156133e9576133ba81613289565b6133c38461329e565b810160208510156133d2578190505b6133e66133de8561329e565b830182613385565b50505b505050565b600082821c905092915050565b600061340c600019846008026133ee565b1980831691505092915050565b600061342583836133fb565b9150826002028217905092915050565b61343e82612732565b67ffffffffffffffff81111561345757613456612996565b5b6134618254612e40565b61346c8282856133a8565b600060209050601f83116001811461349f576000841561348d578287015190505b6134978582613419565b8655506134ff565b601f1984166134ad86613289565b60005b828110156134d5578489015182556001820191506020850194506020810190506134b0565b868310156134f257848901516134ee601f8916826133fb565b8355505b6001600288020188555050505b505050505050565b7f4552433732313a2061646472657373207a65726f206973206e6f74206120766160008201527f6c6964206f776e65720000000000000000000000000000000000000000000000602082015250565b600061356360298361273d565b915061356e82613507565b604082019050919050565b6000602082019050818103600083015261359281613556565b9050919050565b600081905092915050565b60006135af82612732565b6135b98185613599565b93506135c981856020860161274e565b80840191505092915050565b60006135e182856135a4565b91506135ed82846135a4565b91508190509392505050565b7f4f776e61626c653a206e6577206f776e657220697320746865207a65726f206160008201527f6464726573730000000000000000000000000000000000000000000000000000602082015250565b600061365560268361273d565b9150613660826135f9565b604082019050919050565b6000602082019050818103600083015261368481613648565b9050919050565b7f4552433732313a207472616e736665722066726f6d20696e636f72726563742060008201527f6f776e6572000000000000000000000000000000000000000000000000000000602082015250565b60006136e760258361273d565b91506136f28261368b565b604082019050919050565b60006020820190508181036000830152613716816136da565b9050919050565b7f4552433732313a207472616e7366657220746f20746865207a65726f2061646460008201527f7265737300000000000000000000000000000000000000000000000000000000602082015250565b600061377960248361273d565b91506137848261371d565b604082019050919050565b600060208201905081810360008301526137a88161376c565b9050919050565b7f4552433732313a206d696e7420746f20746865207a65726f2061646472657373600082015250565b60006137e560208361273d565b91506137f0826137af565b602082019050919050565b60006020820190508181036000830152613814816137d8565b9050919050565b7f4552433732313a20746f6b656e20616c7265616479206d696e74656400000000600082015250565b6000613851601c8361273d565b915061385c8261381b565b602082019050919050565b6000602082019050818103600083015261388081613844565b9050919050565b7f4f776e61626c653a2063616c6c6572206973206e6f7420746865206f776e6572600082015250565b60006138bd60208361273d565b91506138c882613887565b602082019050919050565b600060208201905081810360008301526138ec816138b0565b9050919050565b7f4552433732313a20617070726f766520746f2063616c6c657200000000000000600082015250565b600061392960198361273d565b9150613934826138f3565b602082019050919050565b600060208201905081810360008301526139588161391c565b9050919050565b7f4552433732313a207472616e7366657220746f206e6f6e20455243373231526560008201527f63656976657220696d706c656d656e7465720000000000000000000000000000602082015250565b60006139bb60328361273d565b91506139c68261395f565b604082019050919050565b600060208201905081810360008301526139ea816139ae565b9050919050565b7f4e487b7100000000000000000000000000000000000000000000000000000000600052601260045260246000fd5b7f455243373231456e756d657261626c653a20636f6e736563757469766520747260008201527f616e7366657273206e6f7420737570706f727465640000000000000000000000602082015250565b6000613a7c60358361273d565b9150613a8782613a20565b604082019050919050565b60006020820190508181036000830152613aab81613a6f565b9050919050565b600081519050919050565b600082825260208201905092915050565b6000613ad982613ab2565b613ae38185613abd565b9350613af381856020860161274e565b613afc81612778565b840191505092915050565b6000608082019050613b1c6000830187612879565b613b296020830186612879565b613b36604083018561290f565b8181036060830152613b488184613ace565b905095945050505050565b600081519050613b62816126a3565b92915050565b600060208284031215613b7e57613b7d61266d565b5b6000613b8c84828501613b53565b91505092915050565b7f4e487b7100000000000000000000000000000000000000000000000000000000600052601160045260246000fd5b6000613bcf826127e4565b9150613bda836127e4565b9250828203905081811115613bf257613bf1613b95565b5b92915050565b7f4e487b7100000000000000000000000000000000000000000000000000000000600052603160045260246000fdfea264697066735822122095b3e7d5fa826b91c8d617bbd535a71c089ce0fcb257d62824b1b19b1457442064736f6c63430008180033",
  "linkReferences": {},
  "deployedLinkReferences": {}
}