{
  "_format": "hh-sol-artifact-1",
  "contractName": "ProductPurchase",
  "sourceName": "contracts/CreateTransaction.sol",
  "abi": [
    {
      "anonymous": false,
      "inputs": [
        {
          "indexed": false,
          "internalType": "uint256",
          "name": "productId",
          "type": "uint256"
        },
        {
          "indexed": false,
          "internalType": "address",
          "name": "buyer",
          "type": "address"
        },
        {
          "indexed": false,
          "internalType": "uint256",
          "name": "amountPaid",
          "type": "uint256"
        }
      ],
      "name": "ProductPurchased",
      "type": "event"
    },
    {
      "stateMutability": "payable",
      "type": "fallback"
    },
    {
      "inputs": [
        {
          "internalType": "uint256",
          "name": "productId",
          "type": "uint256"
        },
        {
          "internalType": "string",
          "name": "_name",
          "type": "string"
        },
        {
          "internalType": "string",
          "name": "_author",
          "type": "string"
        },
        {
          "internalType": "uint256",
          "name": "_price",
          "type": "uint256"
        },
        {
          "internalType": "address payable",
          "name": "_seller",
          "type": "address"
        }
      ],
      "name": "addProduct",
      "outputs": [],
      "stateMutability": "nonpayable",
      "type": "function"
    },
    {
      "inputs": [
        {
          "internalType": "uint256",
          "name": "productId",
          "type": "uint256"
        }
      ],
      "name": "getProduct",
      "outputs": [
        {
          "internalType": "string",
          "name": "",
          "type": "string"
        },
        {
          "internalType": "string",
          "name": "",
          "type": "string"
        },
        {
          "internalType": "uint256",
          "name": "",
          "type": "uint256"
        },
        {
          "internalType": "address payable",
          "name": "",
          "type": "address"
        }
      ],
      "stateMutability": "view",
      "type": "function"
    },
    {
      "inputs": [
        {
          "internalType": "uint256",
          "name": "",
          "type": "uint256"
        }
      ],
      "name": "products",
      "outputs": [
        {
          "internalType": "string",
          "name": "name",
          "type": "string"
        },
        {
          "internalType": "string",
          "name": "author",
          "type": "string"
        },
        {
          "internalType": "uint256",
          "name": "price",
          "type": "uint256"
        },
        {
          "internalType": "address payable",
          "name": "wallet",
          "type": "address"
        }
      ],
      "stateMutability": "view",
      "type": "function"
    },
    {
      "inputs": [
        {
          "internalType": "uint256",
          "name": "productId",
          "type": "uint256"
        }
      ],
      "name": "purchaseProduct",
      "outputs": [],
      "stateMutability": "payable",
      "type": "function"
    },
    {
      "stateMutability": "payable",
      "type": "receive"
    }
  ],
  "bytecode": "0x608060405234801561001057600080fd5b50610d53806100206000396000f3fe6080604052600436106100435760003560e01c806338e76a031461004c57806366c399f4146100685780637acc0b2014610091578063b9db15b4146100d15761004a565b3661004a57005b005b61006660048036038101906100619190610607565b610111565b005b34801561007457600080fd5b5061008f600480360381019061008a91906107d8565b610217565b005b34801561009d57600080fd5b506100b860048036038101906100b39190610607565b6102e7565b6040516100c89493929190610928565b60405180910390f35b3480156100dd57600080fd5b506100f860048036038101906100f39190610607565b610447565b6040516101089493929190610928565b60405180910390f35b600080600083815260200190815260200160002090508060020154341461016d576040517f08c379a0000000000000000000000000000000000000000000000000000000008152600401610164906109c7565b60405180910390fd5b8060030160009054906101000a900473ffffffffffffffffffffffffffffffffffffffff1673ffffffffffffffffffffffffffffffffffffffff166108fc349081150290604051600060405180830381858888f193505050501580156101d7573d6000803e3d6000fd5b507fa530f889d7f1bd9a73028e48944ca013ab2c6624a31e3fa26f923f4bb719abd582333460405161020b93929190610a08565b60405180910390a15050565b60405180608001604052808581526020018481526020018381526020018273ffffffffffffffffffffffffffffffffffffffff1681525060008087815260200190815260200160002060008201518160000190816102759190610c4b565b50602082015181600101908161028b9190610c4b565b506040820151816002015560608201518160030160006101000a81548173ffffffffffffffffffffffffffffffffffffffff021916908373ffffffffffffffffffffffffffffffffffffffff1602179055509050505050505050565b600060205280600052604060002060009150905080600001805461030a90610a6e565b80601f016020809104026020016040519081016040528092919081815260200182805461033690610a6e565b80156103835780601f1061035857610100808354040283529160200191610383565b820191906000526020600020905b81548152906001019060200180831161036657829003601f168201915b50505050509080600101805461039890610a6e565b80601f01602080910402602001604051908101604052809291908181526020018280546103c490610a6e565b80156104115780601f106103e657610100808354040283529160200191610411565b820191906000526020600020905b8154815290600101906020018083116103f457829003601f168201915b5050505050908060020154908060030160009054906101000a900473ffffffffffffffffffffffffffffffffffffffff16905084565b60608060008060008060008781526020019081526020016000209050806000018160010182600201548360030160009054906101000a900473ffffffffffffffffffffffffffffffffffffffff168380546104a190610a6e565b80601f01602080910402602001604051908101604052809291908181526020018280546104cd90610a6e565b801561051a5780601f106104ef5761010080835404028352916020019161051a565b820191906000526020600020905b8154815290600101906020018083116104fd57829003601f168201915b5050505050935082805461052d90610a6e565b80601f016020809104026020016040519081016040528092919081815260200182805461055990610a6e565b80156105a65780601f1061057b576101008083540402835291602001916105a6565b820191906000526020600020905b81548152906001019060200180831161058957829003601f168201915b505050505092509450945094509450509193509193565b6000604051905090565b600080fd5b600080fd5b6000819050919050565b6105e4816105d1565b81146105ef57600080fd5b50565b600081359050610601816105db565b92915050565b60006020828403121561061d5761061c6105c7565b5b600061062b848285016105f2565b91505092915050565b600080fd5b600080fd5b6000601f19601f8301169050919050565b7f4e487b7100000000000000000000000000000000000000000000000000000000600052604160045260246000fd5b6106878261063e565b810181811067ffffffffffffffff821117156106a6576106a561064f565b5b80604052505050565b60006106b96105bd565b90506106c5828261067e565b919050565b600067ffffffffffffffff8211156106e5576106e461064f565b5b6106ee8261063e565b9050602081019050919050565b82818337600083830152505050565b600061071d610718846106ca565b6106af565b90508281526020810184848401111561073957610738610639565b5b6107448482856106fb565b509392505050565b600082601f83011261076157610760610634565b5b813561077184826020860161070a565b91505092915050565b600073ffffffffffffffffffffffffffffffffffffffff82169050919050565b60006107a58261077a565b9050919050565b6107b58161079a565b81146107c057600080fd5b50565b6000813590506107d2816107ac565b92915050565b600080600080600060a086880312156107f4576107f36105c7565b5b6000610802888289016105f2565b955050602086013567ffffffffffffffff811115610823576108226105cc565b5b61082f8882890161074c565b945050604086013567ffffffffffffffff8111156108505761084f6105cc565b5b61085c8882890161074c565b935050606061086d888289016105f2565b925050608061087e888289016107c3565b9150509295509295909350565b600081519050919050565b600082825260208201905092915050565b60005b838110156108c55780820151818401526020810190506108aa565b60008484015250505050565b60006108dc8261088b565b6108e68185610896565b93506108f68185602086016108a7565b6108ff8161063e565b840191505092915050565b610913816105d1565b82525050565b6109228161079a565b82525050565b6000608082019050818103600083015261094281876108d1565b9050818103602083015261095681866108d1565b9050610965604083018561090a565b6109726060830184610919565b95945050505050565b7f496e73756666696369656e742066756e64732073656e74000000000000000000600082015250565b60006109b1601783610896565b91506109bc8261097b565b602082019050919050565b600060208201905081810360008301526109e0816109a4565b9050919050565b60006109f28261077a565b9050919050565b610a02816109e7565b82525050565b6000606082019050610a1d600083018661090a565b610a2a60208301856109f9565b610a37604083018461090a565b949350505050565b7f4e487b7100000000000000000000000000000000000000000000000000000000600052602260045260246000fd5b60006002820490506001821680610a8657607f821691505b602082108103610a9957610a98610a3f565b5b50919050565b60008190508160005260206000209050919050565b60006020601f8301049050919050565b600082821b905092915050565b600060088302610b017fffffffffffffffffffffffffffffffffffffffffffffffffffffffffffffffff82610ac4565b610b0b8683610ac4565b95508019841693508086168417925050509392505050565b6000819050919050565b6000610b48610b43610b3e846105d1565b610b23565b6105d1565b9050919050565b6000819050919050565b610b6283610b2d565b610b76610b6e82610b4f565b848454610ad1565b825550505050565b600090565b610b8b610b7e565b610b96818484610b59565b505050565b5b81811015610bba57610baf600082610b83565b600181019050610b9c565b5050565b601f821115610bff57610bd081610a9f565b610bd984610ab4565b81016020851015610be8578190505b610bfc610bf485610ab4565b830182610b9b565b50505b505050565b600082821c905092915050565b6000610c2260001984600802610c04565b1980831691505092915050565b6000610c3b8383610c11565b9150826002028217905092915050565b610c548261088b565b67ffffffffffffffff811115610c6d57610c6c61064f565b5b610c778254610a6e565b610c82828285610bbe565b600060209050601f831160018114610cb55760008415610ca3578287015190505b610cad8582610c2f565b865550610d15565b601f198416610cc386610a9f565b60005b82811015610ceb57848901518255600182019150602085019450602081019050610cc6565b86831015610d085784890151610d04601f891682610c11565b8355505b6001600288020188555050505b50505050505056fea2646970667358221220c901238e49c15bdf52279e394c79cee7157a80ba842bd3494825f3d97c4ea9ad64736f6c63430008180033",
  "linkReferences": {},
  "deployedLinkReferences": {}
}